S00E000053797374656D2E7372656391
S113000071C000008FC000008DC000008BC00000D4
S113001089C0000087C0000085C0000083C00000C4
S113002081C000007FC000007DC000007BC00000D4
S113003079C0000077C0000075C0000073C00000E4
S113004071C000006FC000006DC000006BC00000F4
S113005069C00000A9C1000065C0000063C00000C1
S113006061C000000C94A7086EC700005BC00000CC
S113007059C0000057C0000055C0000053C0000024
S113008051C000004FC000004DC000004BC0000034
S11300900C94D20899C7000045C0000043C000007A
S11300A041C000003FC000003DC000003BC0000054
S11300B039C0000037C0000035C0000033C0000064
S11300C031C000002FC000002DC000000C94FD08BA
S11300D0BCC7000027C000000C942809F7C7000023
S11300E021C0000011241FBECFEFD1E2DEBFCDBF7F
S11300F000E00CBF14E0A0E0B2E0ECE9F8E100E0BD
S11301000BBF02C007900D92AE34B107D9F72EE0B1
S1130110AEE4B4E001C01D92A33DB207E1F748D4B8
S11301200C944C0C6DCF2F923F924F925F926F9232
S11301307F928F929F92AF92BF92CF92DF92EF9273
S1130140FF920F931F93CF93DF9320915B04309121
S11301508F0CF894EDB6FEB67894EDE5F4E0220F3A
S1130160220FE20FF11DE192F08220918E0C30916A
S11301705C0440917D04232B242B30915B0440913B
S11301808F0C68E0889433953770441F08F4441F3B
S1130190742F422319F06A95B1F7E7CF30935B04CB
S11301A070938F0CEDE5F4E0330F330FE30FF11D83
S11301B021913081F8942DBF3EBF7894DF91CF9187
S11301C01F910F91FF90EF90DF90CF90BF90AF9071
S11301D09F908F907F906F905F904F903F902F9063
S11301E00895EEEEF1E0E80FF11D84910895010207
S11301F0040810204080682F692B000031F005D0DE
S113020000C000000197D9F700000895CF93DF9351
S1130210C82FD42F90E0DC01AA0FBB1FAA0FBB1F6D
S1130220AD01435A5B4FDA011296ED91FC9113979D
S113023060839F0121503109D9017C9321503109F8
S1130240D9011C927597DA01ED93FC93CADFDD2383
S113025041F0982F909580918E0C982390938E0C5A
S113026005C090918E0C982B90938E0C80915B041A
S1130270C81301C07ADFDF91CF91089582E084BD75
S11302809AEF97BD80936E0083E085BD0895CF9368
S1130290DF93F8948EEF80938E0C10927D0410926D
S11302A05C0410925B0481E080938F0CCDE5D4E074
S11302B08DE795E0998388839B838A838DE796E015
S11302C09D838C839F838E838DE797E099878887AE
S11302D09B878A878DE798E09D878C879F878E8789
S11302E08DE799E0998B888B9B8B8A8B8DE79AE0BD
S11302F09D8B8C8B9F8B8E8B8DE79BE0998F888F4A
S11303009B8F8A8F8DE79CE09D8F8C8F9F8F8E8F24
S11303108AEA80937E0480937E0580937E06809390
S11303207E0780937E0880937E0980937E0A809363
S11303307E0BA4DFEDB7FEB7A881B98185818C93CC
S1130340A881B981848111978C93A881B981838113
S113035012978C93A881B981828113978C93888199
S113036099812181FC0134972083888199810597A3
S11303709EBF8DBF7894DF91CF9108959C019FB764
S1130380F894E0915B04F0E0EE0FFF1FE258F34FA6
S11303903183208320915C0480918F0C822B809385
S11303A05C049FBFC0CE08951F920F920FB60F92A8
S11303B011240BB60F922F933F934F935F938F9318
S11303C09F93AF93BF93EF93FF9380914E049091CB
S11303D04F04A0915004B09151040196A11DB11D88
S11303E080934E0490934F04A0935004B09351040F
S11303F030915C04EEE7FCE04EE85CE021E08081B3
S11304009181019781939193892B19F4822F80957F
S11304103823220FE417F50791F730935C04FF911A
S1130420EF91BF91AF919F918F915F914F913F91C8
S11304302F910F900BBE0F900FBE0F901F90189529
S1130440CF936C9A74988FED91E0D5DE749A6C9882
S113045085E490E0D0DECCB185EE90E0CCDEC295B0
S1130460C17081E08C27CF9108956C9A7498749A26
S11304706C988EE090E0BFDE8CB1807108956C9A28
S11304807498813009F4749A8BE390E0B4DE749A22
S11304906C980895EF92FF921F93CF93DF93C0E07F
S11304A0D0E010E0EE24E394F12CDFDF882341F068
S11304B0C7010C2E02C0880F991F0A94E2F7182B6B
S11304C083E190E098DE2196C830D10571F7812F41
S11304D0DF91CF911F91FF90EF9008950F931F9399
S11304E0CF93DF93C0E0D0E0082F10E0C8010C2EBA
S11304F002C0959587950A94E2F78170C0DF219632
S1130500C830D10599F787E790E075DEDF91CF9188
S11305101F910F910895EF92FF920F931F93CF9322
S1130520DF93CDB7DEB72A970FB6F894DEBF0FBEC0
S1130530CDBF86DF8CECD2DF84E4D0DF87E790E0A8
S11305405ADE7EDF8CECCADF8EEBC8DF8E010F5FD4
S11305501F4F7E018AE0E80EF11C9CDFF8018193B5
S11305608F01EE15FF05C9F79A818981913840F40E
S1130570869599231CF481958695819590E003C016
S11305809923E4F7F8CF2A960FB6F894DEBF0FBE8E
S1130590CDBFDF91CF911F910F91FF90EF90089500
S11305A0CF93DF93CDB7DEB7C754D1090FB6F89414
S11305B0DEBF0FBECDBF26E030E040E05BE460E08C
S11305C070E080E090E025D38E01085F1F4F552432
S11305D053940F2EF7ED8F2EF3E09F2EF02D0F2E58
S11305E0F9E46F2EF2E07F2EF02D0F2EF5EAAF2EF8
S11305F0F3E0BF2EF02D0F2EFCE33F2EF02D0F2E37
S1130600F6E8EF2EF3E0FF2EF02D0F2EF6E5CF2EB9
S1130610F3E0DF2EF02D44E050E0BE016F5F7F4F2A
S113062080E090E01BD4892B09F49BC189818D83E0
S11306308A818E8367E473E0CE0105965BD6892BAD
S113064061F447E150E06BEA72E080E090E05ED450
S11306505092920C0BEA12E08DC16AE473E0CE0171
S1130660059648D6892BF9F49091920C852D911119
S113067080E08093920C8091920C882351F047E1A2
S113068050E06BEA72E080E090E040D40BEA12E0C4
S113069071C149E150E069E772E080E090E036D44E
S11306A009E712E067C16DE473E0CE01059622D636
S11306B0892B61F449E150E069E772E080E090E061
S11306C025D41092920C09E712E054C18091920C47
S11306D0882309F4A3C04B8060E573E0CE0105963E
S11306E009D6892BC1F560915204809102028111CF
S11306F010C0862F90E09C01220F331F220F331F5E
S1130700220F331F820F931F80569F4F65E070E0C6
S1130710CAD51F926F93809104028F938091030234
S11307208F931F930F93EFD50F900F900F900F900F
S11307300F900F90992314F406E312E0F80101904E
S11307400020E9F73197AF01401B510BB80180E05D
S113075090E0DCD30FC163E573E0CE010596CAD502
S1130760892B11F54092900C8091900C1F928F93DD
S1130770DF92CF921F930F93C6D50F900F900F90D7
S11307800F900F900F90992314F406E312E0F801F0
S113079001900020E9F73197AF01401B510BB801DC
S11307A080E090E0B3D3E6C063E873E0CE01059641
S11307B0A1D5892B49F5349CC001112490930102E1
S11307C08093000280910002909101029F938F9385
S11307D0FF92EF921F930F9396D50F900F900F9067
S11307E00F900F900F90992314F406E312E0F80190
S11307F001900020E9F73197AF01401B510BB8017C
S113080080E090E083D3B6C046E150E068E173E055
S113081080E090E07BD308E113E0ACC04B8062EA57
S113082073E0CE01059666D5892B51F54092910C63
S11308308091910C8091910C8E37A0F48091910C51
S11308401F928F93BF92AF921F930F935CD50F901B
S11308500F900F900F900F900F90992324F406E3BC
S113086012E001C08301F80101900020E9F73197FB
S1130870AF01401B510BB80180E090E047D37AC030
S113088064ED73E0CE01059635D5892B81F4409251
S11308900502909204028092030243E250E063EC6A
S11308A072E080E090E032D303EC12E063C06DEEBE
S11308B073E0CE0105961ED5892B09F048C086E465
S11308C0481639F098E5491641F183E4481235C0D9
S11308D012C080EF93E0909304028093030210927D
S11308E002024AE150E06DEF72E080E090E00ED346
S11308F00DEF12E03FC083E194E0909304028093F3
S113090003025092020247E150E06FE273E080E09C
S113091090E0FCD20FE213E02DC0509202029092BC
S113092004028092030243E250E063EC72E080E050
S113093090E0ECD203EC12E01DC045E150E067EE1C
S113094072E080E090E0E2D207EE12E013C046E1EC
S113095050E068E173E080E090E0D8D208E113E071
S113096009C047E150E063E972E080E090E0CED254
S113097003E912E088EE93E001DD4DCE249AC0E154
S11309808091050290E0FADC85B18C2785B9F8CF17
S113099057DD811105C054DDC82FC5DBCC23D9F345
S11309A0BADD809352048091050290E0E7DCF8CF31
S11309B06EDC41E060ED72E082E028DC41E068EC4E
S11309C074E081E023DC41E06EEB74E080E01EDC47
S11309D080E090E00895CF93DF9390E0FC01EE0F68
S11309E0FF1FEE0FFF1FEE0FFF1FED56F34F238186
S11309F0213009F458C0AFB7F894FC01EE0FFF1F83
S1130A00EE0FFF1FEE0FFF1FED56F34F2081C6813F
S1130A10D781C20FD11D6883248135812F5F3F4F59
S1130A20358324832381223051F4FC01EE0FFF1F10
S1130A30EE0FFF1FEE0FFF1FED56F34F1382FC0165
S1130A40EE0FFF1FEE0FFF1FEE0FFF1FED56F34FCC
S1130A5030812281632F70E06F5F7F4F422F50E01F
S1130A6064237523418150E06417750769F0880F8A
S1130A70991F880F991F880F991FFC01ED56F34F9A
S1130A803F5F2323208311C0880F991F880F991F6C
S1130A90880F991FFC01ED56F34F3F5F23232083FA
S1130AA081E0838302C080E002C0AFBF81E0DF91B8
S1130AB0CF910895CF93DF9390E0FC01EE0FFF1FD9
S1130AC0EE0FFF1FEE0FFF1FED56F34F2381223071
S1130AD009F45AC0AFB7F894FC01EE0FFF1FEE0FF4
S1130AE0FF1FEE0FFF1FED56F34F2181C681D78103
S1130AF0C20FD11D2881EB01288324813581215027
S1130B003109358324832381213051F4FC01EE0F14
S1130B10FF1FEE0FFF1FEE0FFF1FED56F34F138263
S1130B20FC01EE0FFF1FEE0FFF1FEE0FFF1FED5630
S1130B30F34F31812281632F70E06F5F7F4F422F2B
S1130B4050E064237523408150E06417750769F011
S1130B50880F991F880F991F880F991FFC01ED5664
S1130B60F34F3F5F2323218311C0880F991F880F00
S1130B70991F880F991FFC01ED56F34F3F5F232304
S1130B80218382E0838302C080E002C0AFBF81E0A2
S1130B90DF91CF9108959C01215031092F3F3105F8
S1130BA009F098F528233923232B89F52091530440
S1130BB0222341F0E4E5F4E021E030E041914111E9
S1130BC01DC002C020E030E0F901EE0FFF1FEE0F60
S1130BD0FF1FEE0FFF1FED56F34F1082118281505D
S1130BE0828382E083831582148277836683F9018A
S1130BF0ED5AFB4F81E08083822F08952F5F3F4F92
S1130C0028303105D9F68FEF08958FEF08958FEFCF
S1130C1008956F927F928F929F92AF92BF92CF92DC
S1130C20DF92EF92FF921F93CF93DF93843091056D
S1130C3008F0E1C0122F6A017B013C014C01880CD1
S1130C40991C5C01AA0CBB1CAA0CBB1CAA0CBB1CE7
S1130C50C4018A0D9B1DEC01C25FDD4F6A817B815B
S1130C608C819D8198DF88836E817F8188859985B9
S1130C7092DF8983F401EA5FFD4F0190F081E02D5A
S1130C8080818260808380E8C81680E7D806E1040A
S1130C90F10409F473C054F580E8C81685E2D80657
S1130CA0E104F10409F45BC08CF480E6C81689E021
S1130CB0D806E104F10409F448C080ECC81682E1C6
S1130CC0D806E104F10409F445C07BC080E4C816E9
S1130CD088E3D806E104F10409F446C0C1148BE4A6
S1130CE0D806E104F10409F444C06BC0C1148CE2D9
S1130CF0D80681E0E806F10409F44FC06CF4C1148D
S1130D0086E9D806E104F104F1F1C11481EED806B4
S1130D10E104F104E9F155C0C11484E8D80683E084
S1130D20E806F10409F443C080E9C81680EDD8064A
S1130D3083E0E806F10409F43FC0C11482ECD8064C
S1130D4081E0E806F104E9F52DC040E453E060E0F9
S1130D5070E03AC040EA51E060E070E035C04FEC2A
S1130D6050E060E070E030C04AE850E060E070E0DD
S1130D702BC047E650E060E070E026C044E450E059
S1130D8060E070E021C043E350E060E070E01CC02C
S1130D9042E250E060E070E017C049E150E060E0FA
S1130DA070E012C040E150E060E070E00DC048E047
S1130DB050E060E070E008C047E050E060E070E0C0
S1130DC003C04FEF5FEFBA018FB7F894E301CC0F84
S1130DD0DD1FCA5FDD4FE881F98155834483E881D3
S1130DE0F9811283E881F98198E991838FBF78941E
S1130DF080E090E002C08FEF9FEFDF91CF911F91D1
S1130E00FF90EF90DF90CF90BF90AF909F908F9026
S1130E107F906F900895CF93DF931F92CDB7DEB785
S1130E201982FC01EE0FFF1F880F991F880F991F6D
S1130E30880F991FE80FF91FE25FFD4FBE016F5F36
S1130E407F4F808137DE882319F0898190E002C0CA
S1130E508FEF9FEF0F90DF91CF910895CF92DF92A4
S1130E60EF92FF920F931F93CF93DF9314161506FF
S1130E70ECF48A016B017C01C0E0D0E0C701CBDF58
S1130E808F3F69F08D3031F4CC0DDD1D188281E087
S1130E9090E00EC0F601EC0FFD1F8083219643D92C
S1130EA0C017D1075CF380E090E002C080E090E0DE
S1130EB0DF91CF911F910F91FF90EF90DF90CF9032
S1130EC00895CF93DF93EC01FC01EE0FFF1F880F11
S1130ED0991F880F991F880F991FE80FF91FE25F68
S1130EE0FD4F818178DD882361F0CC0FDD1FCA5F5F
S1130EF0DD4FE881F98181818062818381E090E026
S1130F0002C08FEF9FEFDF91CF910895EF92FF9290
S1130F100F931F93CF93DF93141615065CF48B0184
S1130F207C01EB01040F151F6991C701CADFC017CB
S1130F30D107D1F781E090E0DF91CF911F910F911C
S1130F40FF90EF9008951F920F920FB60F92112405
S1130F500BB60F922F933F934F935F936F937F93AF
S1130F608F939F93AF93BF93EF93FF93CF93DF93AD
S1130F701F92CDB7DEB7BE016F5F7F4F80910F0226
S1130F8099DD882321F089818093C60007C0E09110
S1130F900602F091070281818F7D81830F90DF919A
S1130FA0CF91FF91EF91BF91AF919F918F917F91DD
S1130FB06F915F914F913F912F910F900BBE0F90C6
S1130FC00FBE0F901F9018951F920F920FB60F929D
S1130FD011240BB60F922F933F934F935F936F930C
S1130FE07F938F939F93AF93BF93EF93FF93CF938D
S1130FF0DF931F92CDB7DEB7BE016F5F7F4F809145
S1131000190258DD882321F089818093CE0007C01E
S1131010E0910802F091090281818F7D81830F9014
S1131020DF91CF91FF91EF91BF91AF919F918F91FC
S11310307F916F915F914F913F912F910F900BBED4
S11310400F900FBE0F901F9018951F920F920FB61E
S11310500F9211240BB60F922F933F934F935F93EC
S11310606F937F938F939F93AF93BF93EF93FF936C
S1131070CF93DF931F92CDB7DEB7BE016F5F7F4F73
S11310808091230217DD882321F089818093D60083
S113109007C0E0910A02F0910B0281818F7D818368
S11310A00F90DF91CF91FF91EF91BF91AF919F91FD
S11310B08F917F916F915F914F913F912F910F90FD
S11310C00BBE0F900FBE0F901F9018951F920F929A
S11310D00FB60F9211240BB60F922F933F934F9399
S11310E05F936F937F938F939F93AF93BF93EF938C
S11310F0FF93CF93DF931F92CDB7DEB7BE016F5F2F
S11311007F4F80912D02D6DC882321F08981809342
S1131110360107C0E0910C02F0910D0281818F7DB0
S113112081830F90DF91CF91FF91EF91BF91AF91A8
S11311309F918F917F916F915F914F913F912F91EB
S11311400F900BBE0F900FBE0F901F9018951F921B
S11311500F920FB60F9211240BB60F922F933F9359
S11311604F935F936F937F938F939F93AF93BF93AB
S1131170EF93FF936091C60080910E022CDCFF91E7
S1131180EF91BF91AF919F918F917F916F915F91FB
S11311904F913F912F910F900BBE0F900FBE0F9068
S11311A01F9018951F920F920FB60F9211240BB631
S11311B00F922F933F934F935F936F937F938F93EC
S11311C09F93AF93BF93EF93FF936091CE00809171
S11311D0180201DCFF91EF91BF91AF919F918F9124
S11311E07F916F915F914F913F912F910F900BBE23
S11311F00F900FBE0F901F9018951F920F920FB66D
S11312000F9211240BB60F922F933F934F935F933A
S11312106F937F938F939F93AF93BF93EF93FF93BA
S11312206091D60080912202D6DBFF91EF91BF91AD
S1131230AF919F918F917F916F915F914F913F916A
S11312402F910F900BBE0F900FBE0F901F9018950B
S11312501F920F920FB60F9211240BB60F922F9379
S11312603F934F935F936F937F938F939F93AF932A
S1131270BF93EF93FF936091360180912C02ABDB17
S1131280FF91EF91BF91AF919F918F917F916F915A
S11312905F914F913F912F910F900BBE0F900FBE16
S11312A00F901F90189597FB072E16F4009406D004
S11312B077FD08D00BD007FC05D03EF490958195BE
S11312C09F4F0895709561957F4F0895AA1BBB1B8E
S11312D051E107C0AA1FBB1FA617B70710F0A61B32
S11312E0B70B881F991F5A95A9F780959095BC0153
S11312F0CD010895FB01DC018D910190801901104D
S1131300D9F3990B08950F931F93CF93DF93CDB720
S1131310DEB72E970FB6F894DEBF0FBECDBF0E8991
S11313201F8986E08C831A8309838FEF9FE79E834E
S11313308D83AE01465E5F4F688D798DCE01019637
S113134011D02F813885F801E20FF31F10822E96F9
S11313500FB6F894DEBF0FBECDBFDF91CF911F91C2
S11313600F9108952F923F924F925F926F927F92C6
S11313708F929F92AF92BF92CF92DF92EF92FF92A1
S11313800F931F93CF93DF93CDB7DEB72C970FB690
S1131390F894DEBF0FBECDBF7C016B018A01FC0156
S11313A017821682838181FFB0C1CE0101964C0160
S11313B0F7019381F60193FD859193FF81916F016C
S11313C0882309F49EC1853239F493FD859193FFF6
S11313D081916F01853221F4B70190E0C7D1E8CF44
S11313E0512C312C20E02032A0F48B3269F030F4FF
S11313F0803259F0833269F420612CC08D3239F087
S1131400803339F4216026C02260246023C0286020
S113141021C027FD27C030ED380F3A3078F426FF7D
S113142006C0FAE05F9E300D1124532E13C08AE0EB
S1131430389E300D1124332E20620CC08E3221F4DC
S113144026FD5FC1206406C08C3611F4206802C0FA
S1131450883641F4F60193FD859193FF81916F01E4
S11314608111C1CF982F9F7D9554933028F40C5F40
S11314701F4FFFE3F9830DC0833631F0833771F0DA
S1131480833509F057C021C0F801808189830E5F3C
S11314901F4F44244394512C540114C03801F2E0EA
S11314A06F0E711CF801A080B18026FF03C0652D6A
S11314B070E002C06FEF7FEFC5012C874CD12C0187
S11314C083012C852F77222E16C03801F2E06F0E8F
S11314D0711CF801A080B18026FF03C0652D70E067
S11314E002C06FEF7FEFC5012C872AD12C012C8518
S11314F02068222E830123FC19C0832D90E0481616
S11315005906A0F4B70180E290E030D13A94F5CFC7
S1131510F50127FC859127FE81915F01B70190E0D9
S113152025D131103A94F1E04F1A51084114510475
S113153079F7DEC0843611F0893631F5F80127FFDA
S113154007C060817181828193810C5F1F4F08C045
S113155060817181072E000C880B990B0E5F1F4F61
S11315602F76722E97FF09C090958095709561959E
S11315707F4F8F4F9F4F2068722E2AE030E0A401E6
S11315802DD1A82EA81843C0853729F42F7EB22E5A
S11315902AE030E025C0F22FF97FBF2E8F36C1F04C
S11315A018F4883579F0ADC0803719F0883721F008
S11315B0A8C02F2F2061B22EB4FE0DC08B2D8460E5
S11315C0B82E09C024FF0AC09F2F9660B92E06C00A
S11315D028E030E005C020E130E002C020E132E044
S11315E0F801B7FE07C060817181828193810C5F2D
S11315F01F4F06C06081718180E090E00E5F1F4F35
S1131600A401ECD0A82EA818FB2DFF777F2E76FE20
S11316100BC0372D3E7FA51450F474FE0AC072FC33
S113162008C0372D3E7E05C0BA2C372D03C0BA2C16
S113163001C0B52C34FF0DC0FE01EA0DF11D8081FF
S1131640803311F4397E09C032FF06C0B394B394D9
S113165004C0832F867809F0B39433FD12C030FFA1
S113166006C05A2CB31418F4530C5B18B32CB314DF
S113167060F4B70180E290E03C8778D0B3943C8575
S1131680F6CFB31410F43B1801C0312C34FF11C051
S1131690B70180E390E03C8769D03C8532FF16C0F7
S11316A031FD03C088E790E002C088E590E0B7010F
S11316B00CC0832F867851F031FF02C08BE201C049
S11316C080E237FD8DE2B70190E050D0A51430F4EC
S11316D0B70180E390E04AD05A94F8CFAA94F40179
S11316E0EA0DF11D8081B70190E040D0A110F6CF42
S11316F0332009F45DCEB70180E290E037D03A940C
S1131700F7CFF7018681978102C08FEF9FEF2C9668
S11317100FB6F894DEBF0FBECDBFDF91CF911F91FE
S11317200F91FF90EF90DF90CF90BF90AF909F907C
S11317308F907F906F905F904F903F902F9008957F
S1131740FC010590615070400110D8F78095909588
S11317508E0F9F1F0895FC0161507040019001108D
S1131760D8F7809590958E0F9F1F08950F931F9320
S1131770CF93DF93FB01238121FD03C08FEF9FEF04
S113178028C022FF16C04681578124813581421723
S1131790530744F4A081B1819D012F5F3F4F3183F2
S11317A020838C93268137812F5F3F4F3783268395
S11317B010C0EB01092F182F0084F185E02D199535
S11317C0892BE1F68E819F8101969F838E83812FE1
S11317D0902FDF91CF911F910F910895FA01AA27BD
S11317E0283051F1203181F1E8946F936E7F6E5F60
S11317F07F4F8F4F9F4FAF4FB1E03ED0B4E03CD00E
S1131800670F781F891F9A1FA11D680F791F8A1FF0
S1131810911DA11D6A0F711D811D911DA11D20D057
S113182009F468943F912AE0269F11243019305D11
S11318303193DEF6CF010895462F4770405D419302
S1131840B3E00FD0C9F7F6CF462F4F70405D4A334F
S113185018F0495D31FD4052419302D0A9F7EACF17
S1131860B4E0A6959795879577956795BA95C9F746
S113187000976105710508959B01AC010A2E069439
S11318805795479537952795BA95C9F7620F731FF2
S10F1890841F951FA01D0895F894FFCF3D
S113189C3C00013304FAC000C800D0003001000041
S11318ACD30C4000130D40000000530D2000930D89
S11318BC20000000D30D2000130E20000000530E56
S11318CC2000930E2000466F726D617474696E670C
S11318DC204572726F720A0D00496E76616C6964F0
S11318EC2074656D70657261747572652073656CB6
S11318FC656374696F6E2E205375636B7320746FFC
S113190C207375636B2E0A0D00456E746572696ED7
S113191C67204F7065726174696E67204D6F6465E2
S113192C0A0D004572726F722072656164696E678C
S113193C20636F6D6D616E640A0D00456E74657283
S113194C696E672053657276696365204D6F6465B3
S113195C0A0D0053657420666F726D617420746F88
S113196C2043656C7369757320486578616465639D
S113197C696D616C0A0D00556E7265636F676E69F3
S113198C7A656420666F726D61740A0D0053657418
S113199C20666F726D617420746F20466168726585
S11319AC6E686569740A0D00556E7265636F676EB7
S11319BC697A656420636F6D6D616E640A0D005302
S11319CC657420666F726D617420746F2043656C4E
S11319DC736975730A0D00534D00544D004F4D003F
S11319EC4754005350004F7665722D74656D7065C5
S11319FC7261747572652073657420746F2025642C
S1131A0C20646567726565732043656C73697573CF
S1131A1C0A0D00534F0054696D656F75742073651E
S1131A2C7420746F202564207365636F6E64730A6D
S1131A3C0D005354005365742074617267657420EF
S1131A4C74656D706572617475726520746F202590
S1131A5C6420646567726565732043656C7369758E
S1131A6C730A0D005352004C6173742074656D70CD
S1131A7C3A202578207261772068657800534400F9
S1131A8C4C6173742074656D703A20256420646510
S1131A9C67726565732046616872656E6865697402
S1131AAC0A0D004C6173742074656D703A202564C2
S1131ABC20646567726565732043656C736975731F
S1131ACC0A0D004C6173742074656D703A20307883
S1111ADC257820726177206865780A0D000075
S9030000FC
