S00E000053797374656D2E7372656391
S113000071C000008FC000008DC000008BC00000D4
S113001089C0000087C0000085C0000083C00000C4
S113002081C000007FC000007DC000007BC00000D4
S113003079C0000077C0000075C0000073C00000E4
S113004071C000006FC000006DC000006BC00000F4
S113005069C00000A9C1000065C0000063C00000C1
S113006061C000008DC7000087C600005BC00000AF
S113007059C0000057C0000055C0000053C0000024
S113008051C000004FC000004DC000004BC0000034
S1130090A2C70000B2C6000045C0000043C0000073
S11300A041C000003FC000003DC000003BC0000054
S11300B039C0000037C0000035C0000033C0000064
S11300C031C000002FC000002DC00000AFC70000E9
S11300D0D5C6000027C00000D4C7000010C7000028
S11300E021C0000011241FBECFEFD1E2DEBFCDBF7F
S11300F000E00CBF13E0A0E0B2E0E0E8F6E100E0CD
S11301000BBF02C007900D92AC35B107D9F72DE0B3
S1130110ACE5B3E001C01D92A03EB207E1F761D3A4
S11301200C943E0B6DCF2F923F924F925F926F9241
S11301307F928F929F92AF92BF92CF92DF92EF9273
S1130140FF920F931F93CF93DF9320916903309114
S11301509D0BF894EDB6FEB67894EBE6F3E0220F2F
S1130160220FE20FF11DE192F08220919C0B30915D
S11301706A0340918B03232B242B30916903409114
S11301809D0B68E0889433953770441F08F4441F2E
S1130190742F422319F06A95B1F7E7CF30936903BE
S11301A070939D0BEBE6F3E0330F330FE30FF11D78
S11301B021913081F8942DBF3EBF7894DF91CF9187
S11301C01F910F91FF90EF90DF90CF90BF90AF9071
S11301D09F908F907F906F905F904F903F902F9063
S11301E00895EEEEF1E0E80FF11D84910895010207
S11301F0040810204080682F692B000031F005D0DE
S113020000C000000197D9F700000895CF93DF9351
S1130210C82FD42F90E0DC01AA0FBB1FAA0FBB1F6D
S1130220AD0145595C4FDA011296ED91FC9113979B
S113023060839F0121503109D9017C9321503109F8
S1130240D9011C927597DA01ED93FC93CADFDD2383
S113025041F0982F909580919C0B982390939C0B40
S113026005C090919C0B982B90939C0B80916903F3
S1130270C81301C07ADFDF91CF91089582E084BD75
S11302809AEF97BD80936E0083E085BD0895CF9368
S1130290DF93F8948EEF80939C0B10928B03109253
S11302A06A031092690381E080939D0BCBE6D3E04F
S11302B08BE894E0998388839B838A838BE895E019
S11302C09D838C839F838E838BE896E099878887B0
S11302D09B878A878BE897E09D878C879F878E878B
S11302E08BE898E0998B888B9B8B8A8B8BE899E0C1
S11302F09D8B8C8B9F8B8E8B8BE89AE0998F888F4C
S11303009B8F8A8F8BE89BE09D8F8C8F9F8F8E8F26
S11303108AEA80938C0380938C0480938C05809369
S11303208C0680938C0780938C0880938C0980932F
S11303308C0AA4DFEDB7FEB7A881B98185818C93BF
S1130340A881B981848111978C93A881B981838113
S113035012978C93A881B981828113978C93888199
S113036099812181FC0134972083888199810597A3
S11303709EBF8DBF7894DF91CF9108959C019FB764
S1130380F894E0916903F0E0EE0FFF1FE457F44F97
S11303903183208320916A0380919D0B822B80936B
S11303A06A039FBFC0CE08951F920F920FB60F929B
S11303B011240BB60F922F933F934F935F938F9318
S11303C09F93AF93BF93EF93FF9380915C039091BE
S11303D05D03A0915E03B0915F030196A11DB11D61
S11303E080935C0390935D03A0935E03B0935F03DB
S11303F030916A03ECE8FBE04CE95BE021E08081AA
S11304009181019781939193892B19F4822F80957F
S11304103823220FE417F50791F730936A03FF910D
S1130420EF91BF91AF919F918F915F914F913F91C8
S11304302F910F900BBE0F900FBE0F901F90189529
S1130440CF936C9A74988FED91E0D5DE749A6C9882
S113045085E490E0D0DECCB185EE90E0CCDEC295B0
S1130460C17081E08C27CF9108956C9A7498749A26
S11304706C988EE090E0BFDE8CB1807108956C9A28
S11304807498813009F4749A8BE390E0B4DE749A22
S11304906C980895EF92FF921F93CF93DF93C0E07F
S11304A0D0E010E0EE24E394F12CDFDF882341F068
S11304B0C7010C2E02C0880F991F0A94E2F7182B6B
S11304C083E190E098DE2196C830D10571F7812F41
S11304D0DF91CF911F91FF90EF9008950F931F9399
S11304E0CF93DF93C0E0D0E0082F10E0C8010C2EBA
S11304F002C0959587950A94E2F78170C0DF219632
S1130500C830D10599F787E790E075DEDF91CF9188
S11305101F910F910895EF92FF920F931F93CF9322
S1130520DF93CDB7DEB72A970FB6F894DEBF0FBEC0
S1130530CDBF86DF8CECD2DF84E4D0DF87E790E0A8
S11305405ADE7EDF8CECCADF8EEBC8DF8E010F5FD4
S11305501F4F7E018AE0E80EF11C9CDFF8018193B5
S11305608F01EE15FF05C9F79A818981913840F40E
S1130570869599231CF481958695819590E003C016
S11305809923E4F7F8CF2A960FB6F894DEBF0FBE8E
S1130590CDBFDF91CF911F910F91FF90EF90089500
S11305A0CF93DF93CDB7DEB727970FB6F894DEBFAE
S11305B00FBECDBF26E030E040E05BE460E070E0D9
S11305C080E090E03FD20F2EF9EBEF2EF2E0FF2E09
S11305D0F02D992493940F2EFFEEAF2EF2E0BF2E50
S11305E0F02D03E312E00F2EF2E6CF2EF2E0DF2E21
S11305F0F02D44E050E0BE016F5F7F4F80E090E05B
S113060046D3892B09F4CAC089818D838A818E835C
S113061065E772E0CE0105965FD5892B51F447E179
S113062050E068E772E080E090E089D390929F0BFD
S1130630BCC060E972E0CE0105964ED5892BD9F491
S113064090919F0B892D911180E080939F0B809155
S11306509F0B882341F047E150E068E772E080E0B7
S113066090E06DD3A2C049E150E063E972E080E01C
S113067090E065D39AC06DEA72E0CE0105962CD560
S1130680892B51F449E150E063E972E080E090E0A5
S113069056D310929F0B89C080919F0B811185C006
S11306A08B8060EB72E0CE01059616D5892B11F58F
S11306B080929E0B80919E0B1F928F931F930F939A
S11306C01F930F9312D50F900F900F900F900F90D0
S11306D00F90992314F4B60101C0B801FB010190F5
S11306E00020E9F73197AF01461B570B80E090E0FB
S11306F026D35BC063EB72E0CE010596EDD4892B63
S113070009F453C066EB72E0CE010596E5D4892B5B
S113071009F03CC086E4881639F088E5881601F1B2
S113072083E488122BC00EC0F0920202E092010210
S1130730109200024AE150E06CEB72E080E090E03D
S1130740FED233C0F0920202E092010290920002C3
S113075047E150E067ED72E080E090E0F0D225C020
S113076090920002B0920202A092010243E250E091
S113077062EF72E080E090E0E2D217C045E150E021
S113078066E173E080E090E0DAD20FC046E150E029
S11307906CE273E080E090E0D2D207C047E150E021
S11307A063E473E080E090E0CAD288EE93E0E6DD93
S11307B020CF249AC0E188EE93E0E0DD85B18C2758
S11307C085B9F9CF3DDE811105C03ADEC82FABDC17
S11307D0CC23D9F3A0DE809360038AEF90E0CEDDD2
S11307E0F9CF55DD41E060ED72E082E00FDD41E0DC
S11307F062EE73E081E00ADD41E069ED73E080E0E0
S113080005DD80E090E00895CF93DF9390E0FC0154
S1130810EE0FFF1FEE0FFF1FEE0FFF1FE056F44F0A
S11308202381213009F458C0AFB7F894FC01EE0FCE
S1130830FF1FEE0FFF1FEE0FFF1FE056F44F208146
S1130840C681D781C20FD11D6883248135812F5F72
S11308503F4F358324832381223051F4FC01EE0F72
S1130860FF1FEE0FFF1FEE0FFF1FE056F44F138222
S1130870FC01EE0FFF1FEE0FFF1FEE0FFF1FE056F0
S1130880F44F30812281632F70E06F5F7F4F422FDE
S113089050E064237523418150E06417750769F0C3
S11308A0880F991F880F991F880F991FFC01E05624
S11308B0F44F3F5F2323208311C0880F991F880FB3
S11308C0991F880F991FFC01E056F44F3F5F2323C3
S11308D0208381E0838302C080E002C0AFBF81E057
S11308E0DF91CF910895CF93DF9390E0FC01EE0F59
S11308F0FF1FEE0FFF1FEE0FFF1FE056F44F238183
S1130900223009F45AC0AFB7F894FC01EE0FFF1F70
S1130910EE0FFF1FEE0FFF1FE056F44F2181C6813B
S1130920D781C20FD11D2881EB0128832481358111
S113093021503109358324832381213051F4FC0172
S1130940EE0FFF1FEE0FFF1FEE0FFF1FE056F44FD9
S11309501382FC01EE0FFF1FEE0FFF1FEE0FFF1FB0
S1130960E056F44F31812281632F70E06F5F7F4F37
S1130970422F50E064237523408150E064177507CB
S113098069F0880F991F880F991F880F991FFC0120
S1130990E056F44F3F5F2323218311C0880F991F32
S11309A0880F991F880F991FFC01E056F44F3F5F91
S11309B02323218382E0838302C080E002C0AFBF8F
S11309C081E0DF91CF9108959C01215031092F3F9F
S11309D0310509F098F528233923232B89F5209133
S11309E06103222341F0E2E6F3E021E030E04191AB
S11309F041111DC002C020E030E0F901EE0FFF1FDD
S1130A00EE0FFF1FEE0FFF1FE056F44F108211820E
S1130A108150828382E08383158214827783668384
S1130A20F901EF59FC4F81E08083822F08952F5FF5
S1130A303F4F28303105D9F68FEF08958FEF089591
S1130A408FEF08956F927F928F929F92AF92BF9291
S1130A50CF92DF92EF92FF921F93CF93DF93843074
S1130A60910508F0E1C0122F6A017B013C014C01A1
S1130A70880C991C5C01AA0CBB1CAA0CBB1CAA0CFC
S1130A80BB1CC4018A0D9B1DEC01C55FDD4F6A814F
S1130A907B818C819D8198DF88836E817F818885AD
S1130AA0998592DF8983F401ED5FFD4F0190F08118
S1130AB0E02D80818260808380E8C81680E7D806B4
S1130AC0E104F10409F473C054F580E8C81685E222
S1130AD0D806E104F10409F45BC08CF480E6C8167E
S1130AE089E0D806E104F10409F448C080ECC81692
S1130AF082E1D806E104F10409F445C07BC080E436
S1130B00C81688E3D806E104F10409F446C0C11408
S1130B108BE4D806E104F10409F444C06BC0C114A9
S1130B208CE2D80681E0E806F10409F44FC06CF4C5
S1130B30C11486E9D806E104F104F1F1C11481EE8F
S1130B40D806E104F104E9F155C0C11484E8D806DB
S1130B5083E0E806F10409F443C080E9C81680ED97
S1130B60D80683E0E806F10409F43FC0C11482EC1E
S1130B70D80681E0E806F104E9F52DC040E453E02D
S1130B8060E070E03AC040EA51E060E070E035C0F7
S1130B904FEC50E060E070E030C04AE850E060E0C4
S1130BA070E02BC047E650E060E070E026C044E40B
S1130BB050E060E070E021C043E350E060E070E0AA
S1130BC01CC042E250E060E070E017C049E150E030
S1130BD060E070E012C040E150E060E070E00DC001
S1130BE048E050E060E070E008C047E050E060E0BA
S1130BF070E003C04FEF5FEFBA018FB7F894E301E1
S1130C00CC0FDD1FCD5FDD4FE881F981558344832F
S1130C10E881F9811283E881F98198E991838FBF92
S1130C20789480E090E002C08FEF9FEFDF91CF9146
S1130C301F91FF90EF90DF90CF90BF90AF909F9067
S1130C408F907F906F900895CF93DF931F92CDB7CD
S1130C50DEB71982FC01EE0FFF1F880F991F880F62
S1130C60991F880F991FE80FF91FE55FFD4FBE011B
S1130C706F5F7F4F808137DE882319F0898190E090
S1130C8002C08FEF9FEF0F90DF91CF910895CF9225
S1130C90DF92EF92FF920F931F93CF93DF9314167B
S1130CA01506ECF48A016B017C01C0E0D0E0C701B9
S1130CB0CBDF8F3F69F08D3031F4CC0DDD1D188210
S1130CC081E090E00EC0F601EC0FFD1F80832196B9
S1130CD02ADAC017D1075CF380E090E002C080E01C
S1130CE090E0DF91CF911F910F91FF90EF90DF90F3
S1130CF0CF900895CF93DF93EC01FC01EE0FFF1F1B
S1130D00880F991F880F991F880F991FE80FF91FE3
S1130D10E55FFD4F818178DD882361F0CC0FDD1F15
S1130D20CD5FDD4FE881F98181818062818381E03B
S1130D3090E002C08FEF9FEFDF91CF910895EF9283
S1130D40FF920F931F93CF93DF93141615065CF451
S1130D508B017C01EB01040F151F6991C701CADFE8
S1130D60C017D107D1F781E090E0DF91CF911F91B7
S1130D700F91FF90EF9008951F920F920FB60F926C
S1130D8011240BB60F922F933F934F935F936F935E
S1130D907F938F939F93AF93BF93EF93FF93CF93DF
S1130DA0DF931F92CDB7DEB7BE016F5F7F4F809197
S1130DB00C0299DD882321F089818093C60007C045
S1130DC0E0910302F091040281818F7D81830F9071
S1130DD0DF91CF91FF91EF91BF91AF919F918F914F
S1130DE07F916F915F914F913F912F910F900BBE27
S1130DF00F900FBE0F901F9018951F920F920FB671
S1130E000F9211240BB60F922F933F934F935F933E
S1130E106F937F938F939F93AF93BF93EF93FF93BE
S1130E20CF93DF931F92CDB7DEB7BE016F5F7F4FC5
S1130E308091160258DD882321F089818093CE00A9
S1130E4007C0E0910502F091060281818F7D8183C4
S1130E500F90DF91CF91FF91EF91BF91AF919F914F
S1130E608F917F916F915F914F913F912F910F904F
S1130E700BBE0F900FBE0F901F9018951F920F92EC
S1130E800FB60F9211240BB60F922F933F934F93EB
S1130E905F936F937F938F939F93AF93BF93EF93DE
S1130EA0FF93CF93DF931F92CDB7DEB7BE016F5F81
S1130EB07F4F8091200217DD882321F08981809360
S1130EC0D60007C0E0910702F091080281818F7D6E
S1130ED081830F90DF91CF91FF91EF91BF91AF91FB
S1130EE09F918F917F916F915F914F913F912F913E
S1130EF00F900BBE0F900FBE0F901F9018951F926E
S1130F000F920FB60F9211240BB60F922F933F93AB
S1130F104F935F936F937F938F939F93AF93BF93FD
S1130F20EF93FF93CF93DF931F92CDB7DEB7BE014C
S1130F306F5F7F4F80912A02D6DC882321F089815C
S1130F408093360107C0E0910902F0910A02818181
S1130F508F7D81830F90DF91CF91FF91EF91BF91AE
S1130F60AF919F918F917F916F915F914F913F913D
S1130F702F910F900BBE0F900FBE0F901F901895DE
S1130F801F920F920FB60F9211240BB60F922F934C
S1130F903F934F935F936F937F938F939F93AF93FD
S1130FA0BF93EF93FF936091C60080910B022CDCFA
S1130FB0FF91EF91BF91AF919F918F917F916F912D
S1130FC05F914F913F912F910F900BBE0F900FBEE9
S1130FD00F901F9018951F920F920FB60F92112425
S1130FE00BB60F922F933F934F935F936F937F931F
S1130FF08F939F93AF93BF93EF93FF936091CE0032
S11310008091150201DCFF91EF91BF91AF919F9107
S11310108F917F916F915F914F913F912F910F909D
S11310200BBE0F900FBE0F901F9018951F920F923A
S11310300FB60F9211240BB60F922F933F934F9339
S11310405F936F937F938F939F93AF93BF93EF932C
S1131050FF936091D60080911F02D6DBFF91EF9140
S1131060BF91AF919F918F917F916F915F914F91BC
S11310703F912F910F900BBE0F900FBE0F901F90BA
S113108018951F920F920FB60F9211240BB60F9260
S11310902F933F934F935F936F937F938F939F937C
S11310A0AF93BF93EF93FF93609136018091290230
S11310B0ABDBFF91EF91BF91AF919F918F917F91A6
S11310C06F915F914F913F912F910F900BBE0F90B5
S11310D00FBE0F901F901895FB01DC018D910190BC
S11310E080190110D9F3990B08950F931F93CF938F
S11310F0DF93CDB7DEB72E970FB6F894DEBF0FBEE1
S1131100CDBF0E891F8986E08C831A8309838FEFF4
S11311109FE79E838D83AE01465E5F4F688D798D18
S1131120CE01019611D02F813885F801E20FF31F0B
S113113010822E960FB6F894DEBF0FBECDBFDF919E
S1131140CF911F910F9108952F923F924F925F92EA
S11311506F927F928F929F92AF92BF92CF92DF92C3
S1131160EF92FF920F931F93CF93DF93CDB7DEB728
S11311702C970FB6F894DEBF0FBECDBF7C016B0178
S11311808A01FC0117821682838181FFB0C1CE01DE
S113119001964C01F7019381F60193FD859193FF2C
S11311A081916F01882309F49EC1853239F493FD3E
S11311B0859193FF81916F01853221F4B70190E00D
S11311C0C7D1E8CF512C312C20E02032A0F48B324F
S11311D069F030F4803259F0833269F420612CC014
S11311E08D3239F0803339F4216026C022602460C6
S11311F023C0286021C027FD27C030ED380F3A30C6
S113120078F426FF06C0FAE05F9E300D1124532EB9
S113121013C08AE0389E300D1124332E20620CC096
S11312208E3221F426FD5FC1206406C08C3611F491
S1131230206802C0883641F4F60193FD859193FF3E
S113124081916F018111C1CF982F9F7D9554933067
S113125028F40C5F1F4FFFE3F9830DC0833631F090
S1131260833771F0833509F057C021C0F8018081BC
S113127089830E5F1F4F44244394512C540114C09E
S11312803801F2E06F0E711CF801A080B18026FFD6
S113129003C0652D70E002C06FEF7FEFC5012C879E
S11312A04CD12C0183012C852F77222E16C03801B6
S11312B0F2E06F0E711CF801A080B18026FF03C01C
S11312C0652D70E002C06FEF7FEFC5012C872AD136
S11312D02C012C852068222E830123FC19C0832D28
S11312E090E048165906A0F4B70180E290E030D1AE
S11312F03A94F5CFF50127FC859127FE81915F0192
S1131300B70190E025D131103A94F1E04F1A510819
S11313104114510479F7DEC0843611F0893631F571
S1131320F80127FF07C060817181828193810C5F7E
S11313301F4F08C060817181072E000C880B990B28
S11313400E5F1F4F2F76722E97FF09C090958095E0
S1131350709561957F4F8F4F9F4F2068722E2AE0C2
S113136030E0A4012DD1A82EA81843C0853729F454
S11313702F7EB22E2AE030E025C0F22FF97FBF2E57
S11313808F36C1F018F4883579F0ADC0803719F084
S1131390883721F0A8C02F2F2061B22EB4FE0DC0D3
S11313A08B2D8460B82E09C024FF0AC09F2F96603D
S11313B0B92E06C028E030E005C020E130E002C0CC
S11313C020E132E0F801B7FE07C0608171818281BB
S11313D093810C5F1F4F06C06081718180E090E0B3
S11313E00E5F1F4FA401ECD0A82EA818FB2DFF7789
S11313F07F2E76FE0BC0372D3E7FA51450F474FE6D
S11314000AC072FC08C0372D3E7E05C0BA2C372DA9
S113141003C0BA2C01C0B52C34FF0DC0FE01EA0D87
S1131420F11D8081803311F4397E09C032FF06C07A
S1131430B394B39404C0832F867809F0B39433FD36
S113144012C030FF06C05A2CB31418F4530C5B18A6
S1131450B32CB31460F4B70180E290E03C8778D0F9
S1131460B3943C85F6CFB31410F43B1801C0312C6F
S113147034FF11C0B70180E390E03C8769D03C851C
S113148032FF16C031FD03C088E790E002C088E552
S113149090E0B7010CC0832F867851F031FF02C071
S11314A08BE201C080E237FD8DE2B70190E050D0BD
S11314B0A51430F4B70180E390E04AD05A94F8CFF1
S11314C0AA94F401EA0DF11D8081B70190E040D0A7
S11314D0A110F6CF332009F45DCEB70180E290E08D
S11314E037D03A94F7CFF7018681978102C08FEF06
S11314F09FEF2C960FB6F894DEBF0FBECDBFDF91E1
S1131500CF911F910F91FF90EF90DF90CF90BF90FC
S1131510AF909F908F907F906F905F904F903F908F
S11315202F900895FC010590615070400110D8F788
S1131530809590958E0F9F1F0895FC016150704017
S113154001900110D8F7809590958E0F9F1F0895F4
S11315500F931F93CF93DF93FB01238121FD03C0DE
S11315608FEF9FEF28C022FF16C046815781248148
S113157035814217530744F4A081B1819D012F5F47
S11315803F4F318320838C93268137812F5F3F4FD8
S11315903783268310C0EB01092F182F0084F185AF
S11315A0E02D1995892BE1F68E819F8101969F8309
S11315B08E83812F902FDF91CF911F910F910895EA
S11315C0FA01AA27283051F1203181F1E8946F9370
S11315D06E7F6E5F7F4F8F4F9F4FAF4FB1E03ED016
S11315E0B4E03CD0670F781F891F9A1FA11D680FB4
S11315F0791F8A1F911DA11D6A0F711D811D911DE7
S1131600A11D20D009F468943F912AE0269F11245B
S11316103019305D3193DEF6CF010895462F4770BF
S1131620405D4193B3E00FD0C9F7F6CF462F4F701A
S1131630405D4A3318F0495D31FD4052419302D078
S1131640A9F7EACFB4E0A69597958795779567951E
S1131650BA95C9F700976105710508959B01AC011E
S11316600A2E06945795479537952795BA95C9F745
S1131670620F731F841F951FA01D0895F894FFCF58
S113168001EF02C000C800D00030010000E00B40B0
S113169000200C40000000600C2000A00C20000082
S11316A000E00C2000200D20000000600D2000A0B0
S11316B00D2000536574207461726765742074652D
S11316C06D706572617475726520746F2025642075
S11316D0646567726565732043656C736975730A25
S11316E00D00466F726D617474696E672045727285
S11316F06F720A0D00534D00456E746572696E6712
S11317002053657276696365204D6F64650A0D0028
S1131710544D00456E746572696E67204F70657232
S11317206174696E67204D6F64650A0D004F4D004A
S113173053540053520053440025640053657420ED
S1131740666F726D617420746F2046616872656E95
S1131750686569740A0D0053657420666F726D6163
S11317607420746F2043656C736975730A0D0025CA
S1131770780053657420666F726D617420746F20F5
S113178043656C7369757320486578616465636942
S11317906D616C0A0D00556E7265636F676E697AD0
S11317A0656420666F726D61740A0D00556E726512
S11317B0636F676E697A656420636F6D6D616E64D3
S11317C00A0D004572726F722072656164696E67FA
S10F17D020636F6D6D616E640A0D0000F3
S9030000FC
