S00E000053797374656D2E7372656391
S113000071C000008FC000008DC000008BC00000D4
S113001089C0000087C0000085C0000083C00000C4
S113002081C000007FC000007DC000007BC00000D4
S113003079C0000077C0000075C0000073C00000E4
S113004071C000006FC000006DC000006BC00000F4
S113005069C00000B8C1000065C0000063C00000B2
S113006061C000000C94CC0893C700005BC0000082
S113007059C0000057C0000055C0000053C0000024
S113008051C000004FC000004DC000004BC0000034
S11300900C94F708BEC7000045C0000043C0000030
S11300A041C000003FC000003DC000003BC0000054
S11300B039C0000037C0000035C0000033C0000064
S11300C031C000002FC000002DC000000C94220994
S11300D0E1C7000027C000000C944D090C948B0864
S11300E021C0000011241FBECFEFD1E2DEBFCDBF7F
S11300F000E00CBF14E0A0E0B2E0E0E3F9E100E0CE
S11301000BBF02C007900D92A63AB107D9F72FE0B2
S1130110A6EAB4E001C01D92AC32B207E1F7F5D40F
S11301200C94960C6DCF2F923F924F925F926F92E8
S11301307F928F929F92AF92BF92CF92DF92EF9273
S1130140FF920F931F93CF93DF932091B7043091C5
S1130150EB0CF894EDB6FEB67894E9EBF4E0220FDC
S1130160220FE20FF11DE192F0822091EA0C30910E
S1130170B8044091D904232B242B3091B704409127
S1130180EB0C68E0889433953770441F08F4441FDF
S1130190742F422319F06A95B1F7E7CF3093B7046F
S11301A07093EB0CE9EBF4E0330F330FE30FF11D25
S11301B021913081F8942DBF3EBF7894DF91CF9187
S11301C01F910F91FF90EF90DF90CF90BF90AF9071
S11301D09F908F907F906F905F904F903F902F9063
S11301E00895EEEEF1E0E80FF11D84910895010207
S11301F0040810204080682F692B000031F005D0DE
S113020000C000000197D9F700000895EF92FF9213
S11302101F93CF93DF931F92CDB7DEB7182F90E0D3
S1130220DC01AA0FBB1FAA0FBB1F9D0127543B4F24
S11302307901D9011296ED91FC91139760839F0186
S113024021503109D9017C9321503109D9011C92E3
S11302507597D701ED93FC934983C3DF982F809161
S1130260EA0C4981442329F0292F2095982F9223C1
S113027001C0982B9093EA0C8091B704181307C01F
S11302800F90DF91CF911F91FF90EF906ECF0F9061
S1130290DF91CF911F91FF90EF90089582E084BD8C
S11302A09AEF97BD80936E0083E085BD0895CF9348
S11302B0DF93F8948EEF8093EA0C1092D904109295
S11302C0B8041092B70481E08093EB0CC9EBD4E03E
S11302D089ED95E0998388839B838A8389ED96E0F1
S11302E09D838C839F838E8389ED97E0998788878C
S11302F09B878A8789ED98E09D878C879F878E8767
S113030089ED99E0998B888B9B8B8A8B89ED9AE098
S11303109D8B8C8B9F8B8E8B89ED9BE0998F888F27
S11303209B8F8A8F89ED9CE09D8F8C8F9F8F8E8F02
S11303308AEA8093DA048093DA058093DA0680935C
S1130340DA078093DA088093DA098093DA0A8093D3
S1130350DA0BA4DFEDB7FEB7A881B98185818C9350
S1130360A881B981848111978C93A881B9818381F3
S113037012978C93A881B981828113978C93888179
S113038099812181FC013497208388819981059783
S11303909EBF8DBF7894DF91CF9108959C019FB744
S11303A0F894E091B704F0E0EE0FFF1FE652F34F2C
S11303B0318320832091B8048091EB0C822B8093AD
S11303C0B8049FBFB0CE1F920F920FB60F921124A4
S11303D00BB60F922F933F938F939F93AF93BF933B
S11303E0EF93FF938091A6049091A704A091A80491
S11303F0B091A9040196A11DB11D8093A604909308
S1130400A704A093A804B093A9042091B804EAED2A
S1130410FCE031E080819181019781939193892B54
S113042019F4832F80952823330F8CE0EA3EF807D4
S113043089F72093B804FF91EF91BF91AF919F91F9
S11304408F913F912F910F900BBE0F900FBE0F9085
S11304501F90189521E030E001C0220F8A95EAF739
S11304608091EA0C282B2093EA0C0895CF936C9A80
S113047074988FED91E0BFDE749A6C9885E490E0F7
S1130480BADECCB185EE90E0B6DEC295C17081E0F3
S11304908C27CF9108956C9A7498749A6C988EE016
S11304A090E0A9DE8CB1807108956C9A74988130C3
S11304B009F4749A8BE390E09EDE749A6C98089524
S11304C0EF92FF921F93CF93DF93C0E0D0E010E050
S11304D0EE24E394F12CDFDF882339F0C7010C2EDE
S11304E001C0880F0A94EAF7182B83E190E083DEB9
S11304F02196C830D10579F7812FDF91CF911F91D3
S1130500FF90EF9008950F931F93CF93DF93C0E074
S1130510D0E0082F10E0C8010C2E02C095958795F5
S11305200A94E2F78170C1DF2196C830D10599F7AA
S113053087E790E0DF91CF911F910F915CCEEF920E
S1130540FF920F931F93CF93DF93CDB7DEB72A9714
S11305500FB6F894DEBF0FBECDBF88DF8CECD3DFBF
S113056084E4D1DF87E790E046DE80DF8CECCBDFEC
S11305708EEBC9DF8E010F5F1F4F7E014AE0E40E50
S1130580F11C9EDFF80181938F01EE15FF05C9F779
S11305909A818981913838F4F0E19F9F9001112468
S11305A082958F70822B97FF05C0819582958F70FD
S11305B0806F819590E02A960FB6F894DEBF0FBE47
S11305C0CDBFDF91CF911F910F91FF90EF900895D0
S11305D0CF93DF93CDB7DEB7C055D1090FB6F894EA
S11305E0DEBF0FBECDBF26E030E040E05BE460E05C
S11305F070E080E090E064D331E4232E312C2C0EA3
S11306003D1E42E0240E311C49E4442E512C4C0E74
S11306105D1E56E0450E511C56E7652E53E0752EBF
S11306206CEEA62E63E0B62E74EB872E73E0972E45
S1130630EBE5EE2EE3E0FE2E8E010F5F1F4FF9E295
S1130640CF2EF3E0DF2E48E050E0BE016F5B7F4F1A
S113065080E090E03ED4892B09F494C122968FADBA
S1130660229760968FAF609723968FAD23976196FC
S11306708FAF6197D101FE01E75BFF4F8D91882316
S113068011F0808301C010823196E415F505B1F7AD
S113069069E372E0CE01815B9F4F6ED6892B59F4DA
S11306A047E150E06CE372E080E090E05ED481E0EA
S11306B08093AA046EC164E572E0CE01815B9F4F12
S11306C05BD6892BA9F49091AA0481E0911180E072
S11306D08093AA048091AA04882329F047E150E07A
S11306E06CE372E053C149E150E067E572E04EC14A
S11306F061E772E0CE01815B9F4F3ED6892B51F4B6
S113070049E150E067E572E080E090E02ED4109279
S1130710AA043FC18091AA04882309F4A8C064E70D
S113072072E0CE01815B9F4F27D6892BF9F460914B
S1130730AD047091AE048091060281110FC0772739
S1130740CB0123E0880F991F2A95E1F7680F791FE1
S1130750CB0180569F4F65E070E0CAD51F926F931E
S1130760809101028F938091000219C067E772E0C3
S1130770CE01815B9F4F00D6892B99F4CE01875B14
S11307809F4FDDD59093050280930402809104026B
S1130790909105029F938F938AE792E09F938F93A2
S11307A0AAC067EA72E0CE01815B9F4FE5D5892B31
S11307B071F5CE01875B9F4FC2D52CE3AC01249F1A
S11307C0C001259F900D112490930302809302028F
S11307D080910202909103029F938F938AEA92E0A0
S11307E09F938F931F930F93D8D5F8010190002006
S11307F0E9F73197AF01401B510BB80180E090E05D
S1130800B4D341E061E375E083E000DD83C066ECCE
S113081072E0CE01815B9F4FAFD5892B49F495B12E
S113082080E2892785B941E150E069EC72E0AEC00D
S11308306BED72E0CE01815B9F4F9ED5892B91F4C5
S113084095B180E1892785B94FE050E06EED72E003
S11308509DC063E773E0CE01815B9F4F8DD5892BEB
S113086009F45FC046E150E06EEE72E08FC065E0CF
S113087073E0CE01815B9F4F7FD5892B19F5CE01A3
S1130880875B9F4F5CD59093AC048093AB048091BD
S1130890AB049091AC0497FD07C08091AB04909198
S11308A0AC048E3791052CF040E250E068E073E030
S11308B06DC08091AB049091AC049F938F93DF92B1
S11308C0CF9219C068E573E0CE01815B9F4F54D588
S11308D0892B09F0BECFCE01875B9F4F30D5909313
S11308E008028093070280910702909108029F9367
S11308F08F93FF92EF921F930F934FD5F8010190BE
S11309000020E9F73197AF01401B510BB80180E09B
S113091090E02BD30F900F900F900F900F900F90AB
S113092038C02A968FAD2A97863481F08835C9F06D
S1130930833419F5909201028092000281E0809341
S1130940060247E150E064ED73E020C070920102BA
S113095060920002109206024AE150E069E973E0F5
S113096015C081E080930602B0920102A0920002B9
S113097043E250E062E074E009C045E150E066E221
S113098074E004C047E150E06CE374E080E090E080
S1130990ECD2C9DB58CECF93DF93CDB7DEB7C154C9
S11309A0D1090FB6F894DEBF0FBECDBF5FDD811154
S11309B009C05CDD22968FAF2297B5DB22968FADFE
S11309C02297F5CF8E010F5F1F4F35E0E32EF12CF8
S11309D0B6DD9093AE048093AD048091AA04811196
S11309E033C08091AD049091AE0420910602211190
S11309F00EC09927BC0123E0660F771F2A95E1F703
S1130A00860F971F80569F4FB70172D4862F1F926F
S1130A108F93809101028F93809100028F931F9393
S1130A200F93BBD4F80101900020E9F73197AF018F
S1130A30401B510BB80180E090E097D20F900F90CB
S1130A400F900F900F900F908091070290910802E1
S1130A50A5DCBECF85B1806385B981E0FBDC80E095
S1130A60F9CCC0E0D0E08091020290910302C81753
S1130A70D9072CF488EE93E091DC2196F4CF2091F1
S1130A80AD043091AE048091AB049091AC04019715
S1130A902817390734F742E250E064E574E080E057
S1130AA090E063D2D7DF83E0D5DCDBCF84B1806311
S1130AB084B92C982091AD043091AE048091040245
S1130AC0909105022817390744F04EE250E067E799
S1130AD074E080E090E049D2BDDF8091AA048111E6
S1130AE00EC02091AD043091AE048091AB0490917E
S1130AF0AC042817390714F42D9801C02D9A80915D
S1130B000702909108024ADCD5CFD1DB41E068EEC0
S1130B1072E082E07BDB41E06BEC74E081E076DB49
S1130B2041E061E375E083E071DB41E066E575E097
S1130B3080E06CDB80E090E00895CF93DF9398E051
S1130B40899FF0011124DF01A451B34F13968C91B6
S1130B5013978130A1F17FB7F8948C911696CD91BB
S1130B60DC911797C80FD11D688314962D913C9181
S1130B7015972F5F3F4F15963C932E93149713961A
S1130B808C911397823011F413961C92E451F34F15
S1130B9090818281492F50E04F5F5F4F282F30E0D2
S1130BA042235323218130E09F5F892380834217AE
S1130BB0530711F481E083837FBF81E001C080E0AB
S1130BC0DF91CF910895CF93DF939B0198E0899FA4
S1130BD0F0011124DF01A451B34F13968C911397A4
S1130BE08230C1F17FB7F89411968C9111971696C3
S1130BF0CD91DC911797C80FD11D8881E9018883B5
S1130C0014962D913C9115972150310915963C93DA
S1130C102E93149713968C911397813011F4139695
S1130C201C92E451F34F91818281492F50E04F5F30
S1130C305F4F282F30E042235323208130E09F5F11
S1130C40892381834217530711F482E083837FBF92
S1130C5081E001C080E0DF91CF9108959C01215093
S1130C6031092F3F310509F048F528233923232B77
S1130C7029F5EFEAF4E020E030E04191411119C098
S1130C80F90193E0EE0FFF1F9A95E1F7E451F34F5A
S1130C90108211828150828382E0838315821482C0
S1130CA077836683F901E155FB4F81E08083822FCE
S1130CB008952F5F3F4F28303105F9F68FEF0895DF
S1130CC0BF92CF92DF92EF92FF920F931F93CF9335
S1130CD0DF938430910508F0D0C0B22E6A017B0105
S1130CE08C018AE0809FE001819FD00D1124CF5EAA
S1130CF0DD4F6A817B818C819D81B0DF88836E8129
S1130D007F8188859985AADF8983000F111FF801E7
S1130D10E75FFD4FA081B1819C9192609C9380E834
S1130D20C81680E7D806E104F10409F478C094F504
S1130D3080E8C81685E2D806E104F10409F465C028
S1130D40ACF480E6C81689E0D806E104F10409F49D
S1130D5057C080ECC81682E1D806E104F10409F01A
S1130D6077C040EA51E060E070E075C080E4C816E6
S1130D7088E3D806E104F10409F44CC0C1148BE4FF
S1130D80D806E104F10409F063C047E650E060E0EE
S1130D9070E061C0C1148CE2D80681E0E806F10479
S1130DA009F447C094F4C11486E9D806E104F104B7
S1130DB0D9F1C11481EED806E104F10409F048C068
S1130DC042E250E060E070E046C0C11484E8D80616
S1130DD083E0E806F10491F180E9C81680EDD806B5
S1130DE083E0E806F10479F1C11482ECD80681E0CD
S1130DF0E806F10469F540E150E060E070E02BC0E2
S1130E0040E453E060E070E026C04FEC50E060E066
S1130E1070E021C04AE850E060E070E01CC044E4A7
S1130E2050E060E070E017C043E350E060E070E041
S1130E3012C049E150E060E070E00DC048E050E0CD
S1130E4060E070E008C047E050E060E070E003C09C
S1130E504FEF5FEFBA018FB7F894F801E75FFD4FEA
S1130E600190F081E02D55834483B28298E9918307
S1130E708FBF789480E090E002C08FEF9FEFDF9106
S1130E80CF911F910F91FF90EF90DF90CF90BF9083
S1130E900895CF93DF931F92CDB7DEB719822AE06E
S1130EA0AC01249FC001259F900D1124FC01EF5E2D
S1130EB0FD4FBE016F5F7F4F808185DE882319F06F
S1130EC0898190E002C08FEF9FEF0F90DF91CF9167
S1130ED00895CF92DF92EF92FF920F931F93CF93D7
S1130EE0DF937C016B018A01C0E0D0E0C017D10719
S1130EF08CF4C701CEDF8F3F59F0F601EC0FFD1FD4
S1130F008D3021F4108281E090E006C08083219628
S1130F100AD9ECCF80E090E0DF91CF911F910F913F
S1130F20FF90EF90DF90CF900895CF93DF93EC0183
S1130F308AE08C9FF0018D9FF00D1124EF5EFD4F30
S1130F408181FBDD882361F0CC0FDD1FC75FDD4F9E
S1130F50E881F98181818062818381E090E002C02F
S1130F608FEF9FEFDF91CF9108950F931F93CF934E
S1130F70DF938C01EB016991662319F0C801D5DF79
S1130F80FACF81E090E0DF91CF911F910F91089506
S1130F901F920F920FB60F9211240BB60F922F933C
S1130FA03F934F935F936F937F938F939F93AF93ED
S1130FB0BF93EF93FF93CF93DF931F92CDB7DEB729
S1130FC0BE016F5F7F4F80911202FDDD882321F007
S1130FD089818093C60007C0E0910902F0910A025A
S1130FE081818F7D81830F90DF91CF91FF91EF916C
S1130FF0BF91AF919F918F917F916F915F914F912D
S11310003F912F910F900BBE0F900FBE0F901F902A
S113101018951F920F920FB60F9211240BB60F92D0
S11310202F933F934F935F936F937F938F939F93EC
S1131030AF93BF93EF93FF93CF93DF931F92CDB7FB
S1131040DEB7BE016F5F7F4F80911C02BCDD882339
S113105021F089818093CE0007C0E0910B02F091CA
S11310600C0281818F7D81830F90DF91CF91FF915D
S1131070EF91BF91AF919F918F917F916F915F910C
S11310804F913F912F910F900BBE0F900FBE0F9079
S11310901F9018951F920F920FB60F9211240BB642
S11310A00F922F933F934F935F936F937F938F93FD
S11310B09F93AF93BF93EF93FF93CF93DF931F92CD
S11310C0CDB7DEB7BE016F5F7F4F809126027BDD17
S11310D0882321F089818093D60007C0E0910D0216
S11310E0F0910E0281818F7D81830F90DF91CF91EA
S11310F0FF91EF91BF91AF919F918F917F916F91EC
S11311005F914F913F912F910F900BBE0F900FBEA7
S11311100F901F9018951F920F920FB60F921124E3
S11311200BB60F922F933F934F935F936F937F93DD
S11311308F939F93AF93BF93EF93FF93CF93DF93DB
S11311401F92CDB7DEB7BE016F5F7F4F8091300233
S11311503ADD882321F089818093360107C0E0912C
S11311600F02F091100281818F7D81830F90DF91B6
S1131170CF91FF91EF91BF91AF919F918F917F910B
S11311806F915F914F913F912F910F900BBE0F90F4
S11311900FBE0F901F9018951F920F920FB60F92CB
S11311A011240BB60F922F933F934F935F936F933A
S11311B07F938F939F93AF93BF93EF93FF9360912C
S11311C0C60080911102B9DCFF91EF91BF91AF91FC
S11311D09F918F917F916F915F914F913F912F914B
S11311E00F900BBE0F900FBE0F901F9018951F927B
S11311F00F920FB60F9211240BB60F922F933F93B9
S11312004F935F936F937F938F939F93AF93BF930A
S1131210EF93FF936091CE0080911B028EDCFF91CF
S1131220EF91BF91AF919F918F917F916F915F915A
S11312304F913F912F910F900BBE0F900FBE0F90C7
S11312401F9018951F920F920FB60F9211240BB690
S11312500F922F933F934F935F936F937F938F934B
S11312609F93AF93BF93EF93FF936091D6008091C8
S1131270250263DCFF91EF91BF91AF919F918F9114
S11312807F916F915F914F913F912F910F900BBE82
S11312900F900FBE0F901F9018951F920F920FB6CC
S11312A00F9211240BB60F922F933F934F935F939A
S11312B06F937F938F939F93AF93BF93EF93FF931A
S11312C06091360180912F0238DCFF91EF91BF913C
S11312D0AF919F918F917F916F915F914F913F91CA
S11312E02F910F900BBE0F900FBE0F901F9018956B
S11312F097FB072E16F4009406D077FD08D00BD088
S113130007FC05D03EF4909581959F4F0895709504
S113131061957F4F0895AA1BBB1B51E107C0AA1F0B
S1131320BB1FA617B70710F0A61BB70B881F991F82
S11313305A95A9F780959095BC01CD010895FC01BB
S113134088279927E89421912032E9F3293010F075
S11313502E30C8F32B3239F02D3231F4689403C0A7
S113136014D0820F911D219120532A30C8F31EF40A
S1131370909581959F4F0895FB01DC018D9101901B
S113138080190110D9F3990B08957AE0979F902D55
S1131390879F802D910D112408950F931F93CF9350
S11313A0DF93CDB7DEB72E970FB6F894DEBF0FBE2E
S11313B0CDBF0E891F8986E08C831A8309838FEF42
S11313C09FE79E838D83AE01465E5F4F688D798D66
S11313D0CE01019611D02F813885F801E20FF31F59
S11313E010822E960FB6F894DEBF0FBECDBFDF91EC
S11313F0CF911F910F9108952F923F924F925F9238
S11314006F927F928F929F92AF92BF92CF92DF9210
S1131410EF92FF920F931F93CF93DF93CDB7DEB775
S11314202C970FB6F894DEBF0FBECDBF7C016B01C5
S11314308A01FC0117821682838181FFB0C1CE012B
S113144001964C01F7019381F60193FD859193FF79
S113145081916F01882309F49EC1853239F493FD8B
S1131460859193FF81916F01853221F4B70190E05A
S1131470C7D1E8CF512C312C20E02032A0F48B329C
S113148069F030F4803259F0833269F420612CC061
S11314908D3239F0803339F4216026C02260246013
S11314A023C0286021C027FD27C030ED380F3A3013
S11314B078F426FF06C0FAE05F9E300D1124532E07
S11314C013C08AE0389E300D1124332E20620CC0E4
S11314D08E3221F426FD5FC1206406C08C3611F4DF
S11314E0206802C0883641F4F60193FD859193FF8C
S11314F081916F018111C1CF982F9F7D95549330B5
S113150028F40C5F1F4FFFE3F9830DC0833631F0DD
S1131510833771F0833509F057C021C0F801808109
S113152089830E5F1F4F44244394512C540114C0EB
S11315303801F2E06F0E711CF801A080B18026FF23
S113154003C0652D70E002C06FEF7FEFC5012C87EB
S11315504CD12C0183012C852F77222E16C0380103
S1131560F2E06F0E711CF801A080B18026FF03C069
S1131570652D70E002C06FEF7FEFC5012C872AD183
S11315802C012C852068222E830123FC19C0832D75
S113159090E048165906A0F4B70180E290E030D1FB
S11315A03A94F5CFF50127FC859127FE81915F01DF
S11315B0B70190E025D131103A94F1E04F1A510867
S11315C04114510479F7DEC0843611F0893631F5BF
S11315D0F80127FF07C060817181828193810C5FCC
S11315E01F4F08C060817181072E000C880B990B76
S11315F00E5F1F4F2F76722E97FF09C0909580952E
S1131600709561957F4F8F4F9F4F2068722E2AE00F
S113161030E0A4012DD1A82EA81843C0853729F4A1
S11316202F7EB22E2AE030E025C0F22FF97FBF2EA4
S11316308F36C1F018F4883579F0ADC0803719F0D1
S1131640883721F0A8C02F2F2061B22EB4FE0DC020
S11316508B2D8460B82E09C024FF0AC09F2F96608A
S1131660B92E06C028E030E005C020E130E002C019
S113167020E132E0F801B7FE07C060817181828108
S113168093810C5F1F4F06C06081718180E090E000
S11316900E5F1F4FA401ECD0A82EA818FB2DFF77D6
S11316A07F2E76FE0BC0372D3E7FA51450F474FEBA
S11316B00AC072FC08C0372D3E7E05C0BA2C372DF7
S11316C003C0BA2C01C0B52C34FF0DC0FE01EA0DD5
S11316D0F11D8081803311F4397E09C032FF06C0C8
S11316E0B394B39404C0832F867809F0B39433FD84
S11316F012C030FF06C05A2CB31418F4530C5B18F4
S1131700B32CB31460F4B70180E290E03C8778D046
S1131710B3943C85F6CFB31410F43B1801C0312CBC
S113172034FF11C0B70180E390E03C8769D03C8569
S113173032FF16C031FD03C088E790E002C088E59F
S113174090E0B7010CC0832F867851F031FF02C0BE
S11317508BE201C080E237FD8DE2B70190E050D00A
S1131760A51430F4B70180E390E04AD05A94F8CF3E
S1131770AA94F401EA0DF11D8081B70190E040D0F4
S1131780A110F6CF332009F45DCEB70180E290E0DA
S113179037D03A94F7CFF7018681978102C08FEF53
S11317A09FEF2C960FB6F894DEBF0FBECDBFDF912E
S11317B0CF911F910F91FF90EF90DF90CF90BF904A
S11317C0AF909F908F907F906F905F904F903F90DD
S11317D02F900895FC010590615070400110D8F7D6
S11317E0809590958E0F9F1F0895FC016150704065
S11317F001900110D8F7809590958E0F9F1F089542
S11318000F931F93CF93DF93FB01238121FD03C02B
S11318108FEF9FEF28C022FF16C046815781248195
S113182035814217530744F4A081B1819D012F5F94
S11318303F4F318320838C93268137812F5F3F4F25
S11318403783268310C0EB01092F182F0084F185FC
S1131850E02D1995892BE1F68E819F8101969F8356
S11318608E83812F902FDF91CF911F910F91089537
S1131870FA01AA27283051F1203181F1E8946F93BD
S11318806E7F6E5F7F4F8F4F9F4FAF4FB1E03ED063
S1131890B4E03CD0670F781F891F9A1FA11D680F01
S11318A0791F8A1F911DA11D6A0F711D811D911D34
S11318B0A11D20D009F468943F912AE0269F1124A9
S11318C03019305D3193DEF6CF010895462F47700D
S11318D0405D4193B3E00FD0C9F7F6CF462F4F7068
S11318E0405D4A3318F0495D31FD4052419302D0C6
S11318F0A9F7EACFB4E0A69597958795779567956C
S1131900BA95C9F700976105710508959B01AC016B
S11319100A2E06945795479537952795BA95C9F792
S1131920620F731F841F951FA01D0895F894FFCFA5
S1131930B4032C01500001E803C000C800D00030FB
S11319400100002C0D40006C0D40000000AC0D2087
S113195000EC0D200000002C0E20006C0E20000076
S113196000AC0E2000EC0E2000534D00456E746553
S113197072696E672053657276696365204D6F6482
S1131980650A0D00544D00456E746572696E6720DA
S11319904F7065726174696E67204D6F64650A0DDE
S11319A0004F4D004754004F56004F7665722D741A
S11319B0656D7065726174757265207365742074E9
S11319C06F20256420646567726565732043656CC8
S11319D0736975730A0D00534F0054696D656F7513
S11319E0742073657420746F202564207365636F9D
S11319F06E64730A0D00544C00546F67676C696E13
S1131A0067204C69676874730A0D00544600546F6C
S1131A1067676C696E672046616E730A0D00556EC8
S1131A207265636F676E697A656420636F6D6D615B
S1131A306E640A0D00535400496E76616C6964202B
S1131A4074656D70657261747572652073656C651B
S1131A506374696F6E2E0A0D00536574207461728D
S1131A606765742074656D70657261747572652044
S1131A70746F20256420646567726565732043650F
S1131A806C736975730A0D005352005365742073A7
S1131A90616D706C65207261746520746F202575AA
S1131AA00A0D005344004C6173742074656D703AE0
S1131AB020256420646567726565732046616872D9
S1131AC0656E686569740A0D0053657420666F72EB
S1131AD06D617420746F2046616872656E68656913
S1131AE0740A0D004C6173742074656D703A20257E
S1131AF06420646567726565732043656C736975FA
S1131B00730A0D0053657420666F726D61742074DE
S1131B106F2043656C736975730A0D004C617374AF
S1131B202074656D703A202578207261772068658D
S1131B30780053657420666F726D617420746F2031
S1131B4043656C736975732048657861646563697E
S1131B506D616C0A0D00556E7265636F676E697A0C
S1131B60656420666F726D61740A0D004572726F50
S1131B70722072656164696E6720636F6D6D616E5A
S1131B80640A0D0054696D656F7574206F63637525
S1131B90727265643B205368757474696E6720645F
S1131BA06F776E2E0A0D004D6178696D756D205446
S1131BB0656D7065726174757265206578636565BD
S1131BC06465643B205368757474696E6720646F40
S1091BD0776E2E0A0D00E1
S9030000FC
