:1000000071C000008FC000008DC000008BC00000D8
:1000100089C0000087C0000085C0000083C00000C8
:1000200081C000007FC000007DC000007BC00000D8
:1000300079C0000077C0000075C0000073C00000E8
:1000400071C000006FC000006DC000006BC00000F8
:1000500069C00000B8C1000065C0000063C00000B6
:1000600061C000000C94800847C700005BC000001E
:1000700059C0000057C0000055C0000053C0000028
:1000800051C000004FC000004DC000004BC0000038
:100090000C94AB0872C7000045C0000043C00000CC
:1000A00041C000003FC000003DC000003BC0000058
:1000B00039C0000037C0000035C0000033C0000068
:1000C00031C000002FC000002DC000000C94D608E5
:1000D00095C7000027C000000C940109D0C700009C
:1000E00021C0000011241FBECFEFD1E2DEBFCDBF83
:1000F00000E00CBF14E0A0E0B2E0E8E9F8E100E0C5
:100100000BBF02C007900D92A43BB107D9F72FE0B7
:10011000A4EBB4E001C01D92AA33B207E1F7A9D461
:100120000C944A0C6DCF2F923F924F925F926F9238
:100130007F928F929F92AF92BF92CF92DF92EF9277
:10014000FF920F931F93CF93DF932091C5043091BB
:10015000F90CF894EDB6FEB67894E7ECF4E0220FD3
:10016000220FE20FF11DE192F0822091F80C309104
:10017000C6044091E704232B242B3091C504409101
:10018000F90C68E0889433953770441F08F4441FD5
:10019000742F422319F06A95B1F7E7CF3093C50465
:1001A0007093F90CE7ECF4E0330F330FE30FF11D1C
:1001B00021913081F8942DBF3EBF7894DF91CF918B
:1001C0001F910F91FF90EF90DF90CF90BF90AF9075
:1001D0009F908F907F906F905F904F903F902F9067
:1001E0000895EEEEF1E0E80FF11D8491089501020B
:1001F000040810204080682F692B000031F005D0E2
:1002000000C000000197D9F700000895EF92FF9217
:100210001F93CF93DF931F92CDB7DEB7182F90E0D7
:10022000DC01AA0FBB1FAA0FBB1F9D0129533B4F27
:100230007901D9011296ED91FC91139760839F018A
:1002400021503109D9017C9321503109D9011C92E7
:100250007597D701ED93FC934983C3DF982F809165
:10026000F80C4981442329F0292F2095982F9223B7
:1002700001C0982B9093F80C8091C504181307C007
:100280000F90DF91CF911F91FF90EF906ECF0F9065
:10029000DF91CF911F91FF90EF90089582E084BD90
:1002A0009AEF97BD80936E0083E085BD0895CF934C
:1002B000DF93F8948EEF8093F80C1092E70410927D
:1002C000C6041092C50481E08093F90CC7ECD4E019
:1002D00087EE95E0998388839B838A8387EE96E0F7
:1002E0009D838C839F838E8387EE97E09987888791
:1002F0009B878A8787EE98E09D878C879F878E876C
:1003000087EE99E0998B888B9B8B8A8B87EE9AE09E
:100310009D8B8C8B9F8B8E8B87EE9BE0998F888F2C
:100320009B8F8A8F87EE9CE09D8F8C8F9F8F8E8F07
:100330008AEA8093E8048093E8058093E806809336
:10034000E8078093E8088093E8098093E80A80939F
:10035000E80BA4DFEDB7FEB7A881B98185818C9346
:10036000A881B981848111978C93A881B9818381F7
:1003700012978C93A881B981828113978C9388817D
:1003800099812181FC013497208388819981059787
:100390009EBF8DBF7894DF91CF9108959C019FB748
:1003A000F894E091C504F0E0EE0FFF1FE851F34F21
:1003B000318320832091C6048091F90C822B809395
:1003C000C6049FBFB0CE1F920F920FB60F9211249A
:1003D0000BB60F922F933F938F939F93AF93BF933F
:1003E000EF93FF938091B4049091B504A091B6046B
:1003F000B091B7040196A11DB11D8093B4049093F0
:10040000B504A093B604B093B7042091C604E8EEF7
:10041000FCE031E080819181019781939193892B58
:1004200019F4832F80952823330F8CE0E83FF807D9
:1004300089F72093C604FF91EF91BF91AF919F91EF
:100440008F913F912F910F900BBE0F900FBE0F9089
:100450001F90189521E030E001C0220F8A95EAF73D
:100460008091F80C282B2093F80C0895CF936C9A68
:1004700074988FED91E0BFDE749A6C9885E490E0FB
:10048000BADECCB185EE90E0B6DEC295C17081E0F7
:100490008C27CF9108956C9A7498749A6C988EE01A
:1004A00090E0A9DE8CB1807108956C9A74988130C7
:1004B00009F4749A8BE390E09EDE749A6C98089528
:1004C000EF92FF921F93CF93DF93C0E0D0E010E054
:1004D000EE24E394F12CDFDF882339F0C7010C2EE2
:1004E00001C0880F0A94EAF7182B83E190E083DEBD
:1004F0002196C830D10579F7812FDF91CF911F91D7
:10050000FF90EF9008950F931F93CF93DF93C0E078
:10051000D0E0082F10E0C8010C2E02C095958795F9
:100520000A94E2F78170C1DF2196C830D10599F7AE
:1005300087E790E0DF91CF911F910F915CCEEF9212
:10054000FF920F931F93CF93DF93CDB7DEB72A9718
:100550000FB6F894DEBF0FBECDBF88DF8CECD3DFC3
:1005600084E4D1DF87E790E046DE80DF8CECCBDFF0
:100570008EEBC9DF8E010F5F1F4F7E014AE0E40E54
:10058000F11C9EDFF80181938F01EE15FF05C9F77D
:100590009A818981913838F4F0E19F9F900111246C
:1005A00082958F70822B97FF05C0819582958F7001
:1005B000806F819590E02A960FB6F894DEBF0FBE4B
:1005C000CDBFDF91CF911F910F91FF90EF900895D4
:1005D000CF93DF93CDB7DEB7C055D1090FB6F894EE
:1005E000DEBF0FBECDBF26E030E040E05BE460E060
:1005F00070E080E090E018D347E3E42E42E0F42E70
:1006000051E4652E712C6C0E7D1E42E0640E711C4F
:1006100069E4862E912C8C0E9D1E56E0850E911C51
:1006200071ECC72E73E0D72E8E010F5F1F4FEFE8DE
:10063000AE2EE3E0BE2E48E050E0BE016F5B7F4F80
:1006400080E090E0FAD3892B09F499C122968FAD0E
:10065000229760968FAF609723968FAD2397619610
:100660008FAF6197D301FE01E75BFF4F8D91882328
:1006700011F0808301C010823196E815F905B1F7B9
:1006800060E972E0CE01815B9F4F2AD6892B59F435
:1006900047E150E063E972E080E090E01AD481E045
:1006A0008093B80473C16BEA72E0CE01815B9F4F07
:1006B00017D6892BA9F49091B80481E0911180E0BC
:1006C0008093B8048091B804882329F047E150E072
:1006D00063E972E058C149E150E06EEA72E053C14B
:1006E00068EC72E0CE01815B9F4FFAD5892B51F403
:1006F00049E150E06EEA72E080E090E0EAD31092C7
:10070000B80444C18091B804882309F498C06BEC04
:1007100072E0CE01815B9F4FE3D5892BE1F46091BC
:10072000BB047091BC048091040281110FC0772733
:10073000CB0133E0880F991F3A95E1F7680F791FD5
:10074000CB0180569F4F65E070E086D51F926F9376
:10075000FF92EF92B7C06EEC72E0CE01815B9F4FCB
:10076000BFD5892B99F4CE01875B9F4F9CD5909381
:1007700003028093020280910202909103029F93F0
:100780008F9381ED92E09F938F939CC06EEF72E008
:10079000CE01815B9F4FA4D5892B71F5CE01875B7C
:1007A0009F4F81D52CE3AC01249FC001259F900D64
:1007B0001124909301028093000280910002909195
:1007C00001029F938F9381E093E09F938F931F93F8
:1007D0000F9397D5F80101900020E9F73197AF0109
:1007E000401B510BB80180E090E073D341E065EE0F
:1007F00074E083E00BDD75C06DE173E0CE01815BD9
:100800009F4F6ED5892B49F495B180E2892785B930
:1008100041E150E060E273E0B6C062E373E0CE0114
:10082000815B9F4F5DD5892B09F0A4C095B180E114
:10083000892785B94FE050E065E373E0A4C06CE51B
:1008400073E0CE01815B9F4F4BD5892B19F5CE010B
:10085000875B9F4F28D59093BA048093B904809109
:10086000B9049091BA0497FD07C08091B9049091A2
:10087000BA048E3791052CF04FE250E06FE573E03B
:1008800082C08091B9049091BA049F938F93BF92D4
:10089000AF9218C06EEB73E0CE01815B9F4F20D505
:1008A000892B31F5CE01875B9F4FFDD490930602D3
:1008B0008093050280910502909106029F938F9389
:1008C000DF92CF921F930F931CD5F8010190002067
:1008D000E9F73197AF01401B510BB80180E090E080
:1008E000F8D20F900F900F900F900F900F904EC076
:1008F00069ED73E0CE01815B9F4FF2D4892BD1F576
:100900002A968FAD2A97863499F08835F9F083348A
:1009100061F581E08093040247E150E067EF73E006
:1009200080E090E0D6D297E3E92E92E0F92E2EC037
:10093000109204024AE150E06CED73E080E090E038
:10094000C8D22DE6E22E22E0F22E20C081E0809374
:10095000040243E250E06FE074E080E090E0B9D23E
:1009600087E5E82E82E0F82E11C045E150E063E310
:1009700074E009C046E150E065E473E004C047E17B
:1009800050E069E474E080E090E0A3D2CCDB53CE89
:10099000CF93DF931F92CDB7DEB768DD811105C01D
:1009A00065DD8983C0DB8981F9CFC9DD9093BC0403
:1009B0008093BB048091050290910602EFDCF5CF95
:1009C00085B1806385B980E045CDC0E0D0E08091FD
:1009D000000290910102C817D9072CF488EE93E029
:1009E000DDDC2196F4CF2091BB043091BC048091D2
:1009F000B9049091BA0401972817390734F742E2F5
:100A000050E061E674E080E090E063D2D9DF83E0FB
:100A100021DDDBCF84B1806384B92C982091BB04A5
:100A20003091BC048091020290910302281739078B
:100A300044F04EE250E064E874E080E090E049D297
:100A4000BFDF8091B80481110EC02091BB043091AA
:100A5000BC048091B9049091BA042817390714F4A2
:100A60002D9801C02D9A809105029091060296DC86
:100A7000D5CF1DDC41E068EE72E082E0C7DB41E0EB
:100A800068EC74E081E0C2DB41E065EE74E083E095
:100A9000BDDB41E06AE075E080E0B8DB80E090E03B
:100AA0000895CF93DF9398E0899FF0011124DF012F
:100AB000A650B34F13968C9113978130A1F17FB755
:100AC000F8948C911696CD91DC911797C80FD11D93
:100AD000688314962D913C9115972F5F3F4F159683
:100AE0003C932E93149713968C911397823011F4A4
:100AF00013961C92E650F34F90818281492F50E06B
:100B00004F5F5F4F282F30E042235323218130E095
:100B10009F5F892380834217530711F481E0838309
:100B20007FBF81E001C080E0DF91CF910895CF9336
:100B3000DF939B0198E0899FF0011124DF01A6500B
:100B4000B34F13968C9113978230C1F17FB7F8940D
:100B500011968C9111971696CD91DC911797C80F2D
:100B6000D11D8881E901888314962D913C911597B8
:100B70002150310915963C932E93149713968C911E
:100B80001397813011F413961C92E650F34F918124
:100B90008281492F50E04F5F5F4F282F30E0422382
:100BA0005323208130E09F5F8923818342175307BD
:100BB00011F482E083837FBF81E001C080E0DF9198
:100BC000CF9108959C01215031092F3F310509F043
:100BD00048F528233923232B29F5EDEBF4E020E019
:100BE00030E04191411119C0F90193E0EE0FFF1F70
:100BF0009A95E1F7E650F34F10821182815082837B
:100C000082E083831582148277836683F901E3543B
:100C1000FB4F81E08083822F08952F5F3F4F283064
:100C20003105F9F68FEF0895BF92CF92DF92EF92E0
:100C3000FF920F931F93CF93DF938430910508F0B9
:100C4000D0C0B22E6A017B018C018AE0809FE00156
:100C5000819FD00D1124C15FDD4F6A817B818C8122
:100C60009D81B0DF88836E817F8188859985AADF29
:100C70008983000F111FF801E95FFD4FA081B18149
:100C80009C9192609C9380E8C81680E7D806E104A6
:100C9000F10409F478C094F580E8C81685E2D80616
:100CA000E104F10409F465C0ACF480E6C81689E0FB
:100CB000D806E104F10409F457C080ECC81682E1BB
:100CC000D806E104F10409F077C040EA51E060E0A1
:100CD00070E075C080E4C81688E3D806E104F1042A
:100CE00009F44CC0C1148BE4D806E104F10409F006
:100CF00063C047E650E060E070E061C0C1148CE280
:100D0000D80681E0E806F10409F447C094F4C11460
:100D100086E9D806E104F104D9F1C11481EED806C0
:100D2000E104F10409F048C042E250E060E070E004
:100D300046C0C11484E8D80683E0E806F10491F1C6
:100D400080E9C81680EDD80683E0E806F10479F161
:100D5000C11482ECD80681E0E806F10469F540E1AF
:100D600050E060E070E02BC040E453E060E070E0F1
:100D700026C04FEC50E060E070E021C04AE850E04F
:100D800060E070E01CC044E450E060E070E017C038
:100D900043E350E060E070E012C049E150E060E001
:100DA00070E00DC048E050E060E070E008C047E04F
:100DB00050E060E070E003C04FEF5FEFBA018FB723
:100DC000F894F801E95FFD4F0190F081E02D558323
:100DD0004483B28298E991838FBF789480E090E059
:100DE00002C08FEF9FEFDF91CF911F910F91FF9086
:100DF000EF90DF90CF90BF900895CF93DF931F9235
:100E0000CDB7DEB719822AE0AC01249FC001259F2F
:100E1000900D1124FC01E15FFD4FBE016F5F7F4F1C
:100E2000808185DE882319F0898190E002C08FEFF0
:100E30009FEF0F90DF91CF910895CF92DF92EF92C5
:100E4000FF920F931F93CF93DF937C016B018A0175
:100E5000C0E0D0E0C017D1078CF4C701CEDF8F3FD0
:100E600059F0F601EC0FFD1F8D3021F4108281E066
:100E700090E006C08083219656D9ECCF80E090E0C8
:100E8000DF91CF911F910F91FF90EF90DF90CF9066
:100E90000895CF93DF93EC018AE08C9FF0018D9F42
:100EA000F00D1124E15FFD4F8181FBDD882361F0AE
:100EB000CC0FDD1FC95FDD4FE881F9818181806240
:100EC000818381E090E002C08FEF9FEFDF91CF91AF
:100ED00008950F931F93CF93DF938C01EB016991DA
:100EE000662319F0C801D5DFFACF81E090E0DF91E9
:100EF000CF911F910F9108951F920F920FB60F92ED
:100F000011240BB60F922F933F934F935F936F93E0
:100F10007F938F939F93AF93BF93EF93FF93CF9361
:100F2000DF931F92CDB7DEB7BE016F5F7F4F809119
:100F30001002FDDD882321F089818093C60007C05F
:100F4000E0910702F091080281818F7D81830F90EB
:100F5000DF91CF91FF91EF91BF91AF919F918F91D1
:100F60007F916F915F914F913F912F910F900BBEA9
:100F70000F900FBE0F901F9018951F920F920FB6F3
:100F80000F9211240BB60F922F933F934F935F93C1
:100F90006F937F938F939F93AF93BF93EF93FF9341
:100FA000CF93DF931F92CDB7DEB7BE016F5F7F4F48
:100FB00080911A02BCDD882321F089818093CE00C4
:100FC00007C0E0910902F0910A0281818F7D81833F
:100FD0000F90DF91CF91FF91EF91BF91AF919F91D2
:100FE0008F917F916F915F914F913F912F910F90D2
:100FF0000BBE0F900FBE0F901F9018951F920F926F
:101000000FB60F9211240BB60F922F933F934F936D
:101010005F936F937F938F939F93AF93BF93EF9360
:10102000FF93CF93DF931F92CDB7DEB7BE016F5F03
:101030007F4F809124027BDD882321F0898180937A
:10104000D60007C0E0910B02F0910C0281818F7DE8
:1010500081830F90DF91CF91FF91EF91BF91AF917D
:101060009F918F917F916F915F914F913F912F91C0
:101070000F900BBE0F900FBE0F901F9018951F92F0
:101080000F920FB60F9211240BB60F922F933F932E
:101090004F935F936F937F938F939F93AF93BF9380
:1010A000EF93FF93CF93DF931F92CDB7DEB7BE01CF
:1010B0006F5F7F4F80912E023ADD882321F0898176
:1010C0008093360107C0E0910D02F0910E028181FC
:1010D0008F7D81830F90DF91CF91FF91EF91BF9131
:1010E000AF919F918F917F916F915F914F913F91C0
:1010F0002F910F900BBE0F900FBE0F901F90189561
:101100001F920F920FB60F9211240BB60F922F93CE
:101110003F934F935F936F937F938F939F93AF937F
:10112000BF93EF93FF936091C60080910F02B9DCEB
:10113000FF91EF91BF91AF919F918F917F916F91AF
:101140005F914F913F912F910F900BBE0F900FBE6B
:101150000F901F9018951F920F920FB60F921124A7
:101160000BB60F922F933F934F935F936F937F93A1
:101170008F939F93AF93BF93EF93FF936091CE00B4
:10118000809119028EDCFF91EF91BF91AF919F91F9
:101190008F917F916F915F914F913F912F910F9020
:1011A0000BBE0F900FBE0F901F9018951F920F92BD
:1011B0000FB60F9211240BB60F922F933F934F93BC
:1011C0005F936F937F938F939F93AF93BF93EF93AF
:1011D000FF936091D6008091230263DCFF91EF9131
:1011E000BF91AF919F918F917F916F915F914F913F
:1011F0003F912F910F900BBE0F900FBE0F901F903D
:1012000018951F920F920FB60F9211240BB60F92E2
:101210002F933F934F935F936F937F938F939F93FE
:10122000AF93BF93EF93FF936091360180912D02AE
:1012300038DCFF91EF91BF91AF919F918F917F919A
:101240006F915F914F913F912F910F900BBE0F9037
:101250000FBE0F901F90189597FB072E16F4009461
:1012600006D077FD08D00BD007FC05D03EF4909552
:1012700081959F4F0895709561957F4F0895AA1BA2
:10128000BB1B51E107C0AA1FBB1FA617B70710F071
:10129000A61BB70B881F991F5A95A9F780959095A3
:1012A000BC01CD010895FC0188279927E89421917C
:1012B0002032E9F3293010F02E30C8F32B3239F008
:1012C0002D3231F4689403C014D0820F911D219106
:1012D00020532A30C8F31EF4909581959F4F0895AE
:1012E000FB01DC018D91019080190110D9F3990B5C
:1012F00008957AE0979F902D879F802D910D11245E
:1013000008950F931F93CF93DF93CDB7DEB72E973A
:101310000FB6F894DEBF0FBECDBF0E891F8986E0E1
:101320008C831A8309838FEF9FE79E838D83AE01A1
:10133000465E5F4F688D798DCE01019611D02F8169
:101340003885F801E20FF31F10822E960FB6F8943D
:10135000DEBF0FBECDBFDF91CF911F910F910895DA
:101360002F923F924F925F926F927F928F929F92B5
:10137000AF92BF92CF92DF92EF92FF920F931F93A3
:10138000CF93DF93CDB7DEB72C970FB6F894DEBFBF
:101390000FBECDBF7C016B018A01FC011782168252
:1013A000838181FFB0C1CE0101964C01F701938189
:1013B000F60193FD859193FF81916F01882309F4D4
:1013C0009EC1853239F493FD859193FF81916F0120
:1013D000853221F4B70190E0C7D1E8CF512C312CF0
:1013E00020E02032A0F48B3269F030F4803259F0E2
:1013F000833269F420612CC08D3239F0803339F4A6
:10140000216026C02260246023C0286021C027FDFF
:1014100027C030ED380F3A3078F426FF06C0FAE0E6
:101420005F9E300D1124532E13C08AE0389E300D7C
:101430001124332E20620CC08E3221F426FD5FC1B0
:10144000206406C08C3611F4206802C0883641F44E
:10145000F60193FD859193FF81916F018111C1CFB9
:10146000982F9F7D9554933028F40C5F1F4FFFE316
:10147000F9830DC0833631F0833771F0833509F07D
:1014800057C021C0F801808189830E5F1F4F44241B
:101490004394512C540114C03801F2E06F0E711CBA
:1014A000F801A080B18026FF03C0652D70E002C066
:1014B0006FEF7FEFC5012C874CD12C0183012C8568
:1014C0002F77222E16C03801F2E06F0E711CF80142
:1014D000A080B18026FF03C0652D70E002C06FEFD1
:1014E0007FEFC5012C872AD12C012C852068222E64
:1014F000830123FC19C0832D90E048165906A0F4FF
:10150000B70180E290E030D13A94F5CFF50127FCA5
:10151000859127FE81915F01B70190E025D13110BF
:101520003A94F1E04F1A51084114510479F7DEC0A2
:10153000843611F0893631F5F80127FF07C0608144
:101540007181828193810C5F1F4F08C0608171811E
:10155000072E000C880B990B0E5F1F4F2F76722EF3
:1015600097FF09C090958095709561957F4F8F4F3B
:101570009F4F2068722E2AE030E0A4012DD1A82EC2
:10158000A81843C0853729F42F7EB22E2AE030E018
:1015900025C0F22FF97FBF2E8F36C1F018F48835A1
:1015A00079F0ADC0803719F0883721F0A8C02F2F0F
:1015B0002061B22EB4FE0DC08B2D8460B82E09C000
:1015C00024FF0AC09F2F9660B92E06C028E030E0A5
:1015D00005C020E130E002C020E132E0F801B7FEB2
:1015E00007C060817181828193810C5F1F4F06C0AB
:1015F0006081718180E090E00E5F1F4FA401ECD00C
:10160000A82EA818FB2DFF777F2E76FE0BC0372D56
:101610003E7FA51450F474FE0AC072FC08C0372D3A
:101620003E7E05C0BA2C372D03C0BA2C01C0B52CA4
:1016300034FF0DC0FE01EA0DF11D8081803311F4ED
:10164000397E09C032FF06C0B394B39404C0832F1F
:10165000867809F0B39433FD12C030FF06C05A2CCF
:10166000B31418F4530C5B18B32CB31460F4B70123
:1016700080E290E03C8778D0B3943C85F6CFB314F9
:1016800010F43B1801C0312C34FF11C0B70180E3C6
:1016900090E03C8769D03C8532FF16C031FD03C025
:1016A00088E790E002C088E590E0B7010CC0832F86
:1016B000867851F031FF02C08BE201C080E237FD35
:1016C0008DE2B70190E050D0A51430F4B70180E36B
:1016D00090E04AD05A94F8CFAA94F401EA0DF11D93
:1016E0008081B70190E040D0A110F6CF332009F4FB
:1016F0005DCEB70180E290E037D03A94F7CFF701A2
:101700008681978102C08FEF9FEF2C960FB6F894D9
:10171000DEBF0FBECDBFDF91CF911F910F91FF9024
:10172000EF90DF90CF90BF90AF909F908F907F9081
:101730006F905F904F903F902F900895FC0105901F
:10174000615070400110D8F7809590958E0F9F1FC3
:101750000895FC016150704001900110D8F7809508
:1017600090958E0F9F1F08950F931F93CF93DF9334
:10177000FB01238121FD03C08FEF9FEF28C022FFD3
:1017800016C046815781248135814217530744F49E
:10179000A081B1819D012F5F3F4F318320838C93C6
:1017A000268137812F5F3F4F3783268310C0EB019F
:1017B000092F182F0084F185E02D1995892BE1F66A
:1017C0008E819F8101969F838E83812F902FDF9141
:1017D000CF911F910F910895FA01AA27283051F156
:1017E000203181F1E8946F936E7F6E5F7F4F8F4F52
:1017F0009F4FAF4FB1E03ED0B4E03CD0670F781FB1
:10180000891F9A1FA11D680F791F8A1F911DA11D95
:101810006A0F711D811D911DA11D20D009F46894CE
:101820003F912AE0269F11243019305D3193DEF676
:10183000CF010895462F4770405D4193B3E00FD02C
:10184000C9F7F6CF462F4F70405D4A3318F0495D17
:1018500031FD4052419302D0A9F7EACFB4E0A695FA
:101860009795879577956795BA95C9F7009761051C
:10187000710508959B01AC010A2E06945795479572
:1018800037952795BA95C9F7620F731F841F951F67
:08189000A01D0895F894FFCF9C
:101898002C01500001E803C000C800D0003001004E
:1018A800003A0D40007A0D40000000BA0D2000FA01
:1018B8000D200000003A0E20007A0E20000000BA29
:1018C8000E2000FA0E20004C6173742074656D7050
:1018D8003A20256420646567726565732043656CEA
:1018E800736975730A0D004C6173742074656D70AB
:1018F8003A2025782072617720686578004C6173FA
:10190800742074656D703A2025642064656772657B
:1019180065732046616872656E686569740A0D00B2
:10192800534D00456E746572696E67205365727613
:10193800696365204D6F64650A0D00544D00456E5E
:10194800746572696E67204F7065726174696E673D
:10195800204D6F64650A0D004F4D004754004F56E7
:10196800004F7665722D74656D706572617475725D
:10197800652073657420746F202564206465677220
:101988006565732043656C736975730A0D00534F61
:101998000054696D656F75742073657420746F20C9
:1019A8002564207365636F6E64730A0D00544C00E0
:1019B800546F67676C696E67204C69676874730A4F
:1019C8000D00544600546F67676C696E6720466166
:1019D8006E730A0D00556E7265636F676E697A657E
:1019E8006420636F6D6D616E640A0D005354004985
:1019F8006E76616C69642074656D7065726174756A
:101A080072652073656C656374696F6E2E205375FB
:101A1800636B7320746F207375636B2E0A0D00530C
:101A28006574207461726765742074656D70657281
:101A3800617475726520746F20256420646567720F
:101A48006565732043656C736975730A0D0053529D
:101A5800005365742073616D706C652072617465E4
:101A680020746F2025750A0D0053440053657420B7
:101A7800666F726D617420746F2046616872656E5E
:101A8800686569740A0D0053657420666F726D612C
:101A98007420746F2043656C736975730A0D005365
:101AA800657420666F726D617420746F2043656C75
:101AB800736975732048657861646563696D616CE5
:101AC8000A0D00556E7265636F676E697A656420EA
:101AD800666F726D61740A0D004572726F722072C2
:101AE800656164696E6720636F6D6D616E640A0D70
:101AF8000054696D656F7574206F636375727265E4
:101B0800643B205368757474696E6720646F776EE0
:101B18002E0A0D004D6178696D756D2054656D70E4
:101B2800657261747572652065786365656465645E
:101B38003B205368757474696E6720646F776E2EE6
:041B48000A0D000082
:00000001FF
