:1000000071C000008EC000008CC000008AC00000DB
:1000100088C0000086C0000084C0000082C00000CC
:1000200080C000007EC000007CC000007AC00000DC
:1000300078C0000076C0000074C0000072C00000EC
:1000400070C000006EC000006CC000006AC00000FC
:1000500068C000009DC1000064C0000062C00000D4
:1000600060C0000059C5000053C400005AC0000021
:1000700058C0000056C0000054C0000052C000002C
:1000800050C000004EC000004CC000004AC000003C
:100090006EC500007EC4000044C0000042C00000E5
:1000A00040C000003EC000003CC000003AC000005C
:1000B00038C0000036C0000034C0000032C000006C
:1000C00030C000002EC000002CC000007BC5000026
:1000D000A1C4000026C00000A0C50000DCC40000D0
:1000E00020C0000011241FBECFEFD1E2DEBFCDBF84
:1000F00000E00CBF12E0A0E0B2E0E4E7FCE000E0CA
:100100000BBF02C007900D92A033B107D9F72CE0C6
:10011000A0E3B2E001C01D92A13BB207E1F7A0D17C
:10012000A7C56ECF2F923F924F925F926F927F92B0
:100130008F929F92AF92BF92CF92DF92EF92FF92F7
:100140000F931F93CF93DF9320913C023091700A5D
:10015000F894EDB6FEB67894EEE3F2E0220F220FAB
:10016000E20FF11DE192F08220916F0A30913D0281
:1001700040915E02232B242B30913C024091700A67
:1001800068E0889433953770441F08F4441F742F37
:10019000422319F06A95B1F7E7CF30933C02709390
:1001A000700AEEE3F2E0330F330FE30FF11D2191FC
:1001B0003081F8942DBF3EBF7894DF91CF911F918D
:1001C0000F91FF90EF90DF90CF90BF90AF909F90F6
:1001D0008F907F906F905F904F903F902F900895F9
:1001E000ECEEF1E0E80FF11D84910895010204089E
:1001F00010204080CF93DF93C82FD42F90E0DC01F4
:10020000AA0FBB1FAA0FBB1FAD01425C5D4FDA01F5
:100210001296ED91FC91139760839F012150310953
:10022000D9017C9321503109D9011C927597DA01CB
:10023000ED93FC93D5DFDD2341F0982F90958091CD
:100240006F0A982390936F0A05C090916F0A982BBC
:1002500090936F0A80913C02C81301C085DFDF9143
:10026000CF91089582E084BD9AEF97BD80936E0090
:1002700083E085BD0895CF93DF93F8948EEF80934C
:100280006F0A10925E0210923D0210923C0281E0D1
:100290008093700ACEE3D2E08EE593E09983888361
:1002A0009B838A838EE594E09D838C839F838E83DA
:1002B0008EE595E0998788879B878A878EE596E00B
:1002C0009D878C879F878E878EE597E0998B888B9B
:1002D0009B8B8A8B8EE598E09D8B8C8B9F8B8E8B76
:1002E0008EE599E0998F888F9B8F8A8F8EE59AE0B3
:1002F0009D8F8C8F9F8F8E8F8AEA80935F02809371
:100300005F0380935F0480935F0580935F06809313
:100310005F0780935F0880935F09A4DFEDB7FEB7A6
:10032000A881B98185818C93A881B9818481119735
:100330008C93A881B981838112978C93A881B9810C
:10034000828113978C93888199812181FC01349754
:1003500020838881998105979EBF8DBF7894DF9116
:10036000CF9108959C019FB7F894E0913C02F0E092
:10037000EE0FFF1FE15AF54F3183208320913D029C
:100380008091700A822B80933D029FBFCBCE08954F
:100390001F920F920FB60F9211240BB60F922F934C
:1003A0003F934F935F938F939F93AF93BF93EF933D
:1003B000FF938091300290913102A0913202B0916E
:1003C00033020196A11DB11D80933002909331023A
:1003D000A0933202B093330230913D02EFE5FAE090
:1003E0004FE65AE021E080819181019781939193BA
:1003F000892B19F4822F80953823220FE417F507F3
:1004000091F730933D02FF91EF91BF91AF919F9192
:100410008F915F914F913F912F910F900BBE0F9055
:100420000FBE0F901F90189526E030E040E05BE48F
:1004300060E070E080E090E044D168E680E090E029
:1004400042D288EE93E08EDFF8CF249AC0E188EEA6
:1004500093E088DF85B18C2785B9F9CF63DEFECFC5
:100460000ADF41E064E172E082E0C4DE41E06EE276
:1004700072E081E0BFDE41E065E272E080E0BADE7A
:1004800080E090E00895CF93DF9390E0FC01EE0FC1
:10049000FF1FEE0FFF1FEE0FFF1FEF58F54F2381D9
:1004A000213009F458C0AFB7F894FC01EE0FFF1FDC
:1004B000EE0FFF1FEE0FFF1FEF58F54F2081C68193
:1004C000D781C20FD11D6883248135812F5F3F4FB3
:1004D000358324832381223051F4FC01EE0FFF1F6A
:1004E000EE0FFF1FEE0FFF1FEF58F54F1382FC01B9
:1004F000EE0FFF1FEE0FFF1FEE0FFF1FEF58F54F20
:1005000030812281632F70E06F5F7F4F422F50E078
:1005100064237523418150E06417750769F0880FE3
:10052000991F880F991F880F991FFC01EF58F54FED
:100530003F5F2323208311C0880F991F880F991FC5
:10054000880F991FFC01EF58F54F3F5F232320834D
:1005500081E0838302C080E002C0AFBF81E0DF9111
:10056000CF910895CF93DF9390E0FC01EE0FFF1F32
:10057000EE0FFF1FEE0FFF1FEF58F54F23812230C4
:1005800009F45AC0AFB7F894FC01EE0FFF1FEE0F4D
:10059000FF1FEE0FFF1FEF58F54F2181C681D78156
:1005A000C20FD11D2881EB01288324813581215080
:1005B0003109358324832381213051F4FC01EE0F6E
:1005C000FF1FEE0FFF1FEE0FFF1FEF58F54F1382B7
:1005D000FC01EE0FFF1FEE0FFF1FEE0FFF1FEF5886
:1005E000F54F31812281632F70E06F5F7F4F422F83
:1005F00050E064237523408150E06417750769F06B
:10060000880F991F880F991F880F991FFC01EF58B9
:10061000F54F3F5F2323218311C0880F991F880F57
:10062000991F880F991FFC01EF58F54F3F5F232357
:10063000218382E0838302C080E002C0AFBF81E0FB
:10064000DF91CF9108959C01215031092F3F310551
:1006500009F098F528233923232B89F520913402BA
:10066000222341F0E5E3F2E021E030E04191411145
:100670001DC002C020E030E0F901EE0FFF1FEE0FB9
:10068000FF1FEE0FFF1FEF58F54F108211828150B0
:10069000828382E083831582148277836683F901E3
:1006A000EC5CFD4F81E08083822F08952F5F3F4FE8
:1006B00028303105D9F68FEF08958FEF08958FEF29
:1006C00008956F927F928F929F92AF92BF92CF9236
:1006D000DF92EF92FF921F93CF93DF9384309105C7
:1006E00008F0E1C0122F6A017B013C014C01880C2B
:1006F000991C5C01AA0CBB1CAA0CBB1CAA0CBB1C41
:10070000C4018A0D9B1DEC01C85FDD4F6A817B81AE
:100710008C819D8198DF88836E817F818885998512
:1007200092DF8983F401E050FE4F0190F081E02DCB
:1007300080818260808380E8C81680E7D806E10463
:10074000F10409F473C054F580E8C81685E2D806B0
:10075000E104F10409F45BC08CF480E6C81689E07A
:10076000D806E104F10409F448C080ECC81682E11F
:10077000D806E104F10409F445C07BC080E4C81642
:1007800088E3D806E104F10409F446C0C1148BE4FF
:10079000D806E104F10409F444C06BC0C1148CE232
:1007A000D80681E0E806F10409F44FC06CF4C114E6
:1007B00086E9D806E104F104F1F1C11481EED8060E
:1007C000E104F104E9F155C0C11484E8D80683E0DE
:1007D000E806F10409F443C080E9C81680EDD806A4
:1007E00083E0E806F10409F43FC0C11482ECD806A6
:1007F00081E0E806F104E9F52DC040E453E060E053
:1008000070E03AC040EA51E060E070E035C04FEC83
:1008100050E060E070E030C04AE850E060E070E036
:100820002BC047E650E060E070E026C044E450E0B2
:1008300060E070E021C043E350E060E070E01CC085
:1008400042E250E060E070E017C049E150E060E053
:1008500070E012C040E150E060E070E00DC048E0A0
:1008600050E060E070E008C047E050E060E070E019
:1008700003C04FEF5FEFBA018FB7F894E301CC0FDD
:10088000DD1FC050DE4FE881F98155834483E88144
:10089000F9811283E881F98198E991838FBF789477
:1008A00080E090E002C08FEF9FEFDF91CF911F912A
:1008B000FF90EF90DF90CF90BF90AF909F908F9080
:1008C0007F906F900895CF93DF93EC01FC01EE0FC2
:1008D000FF1F880F991F880F991F880F991FE80F16
:1008E000F91FE85FFD4F8181CEDD882361F0CC0FD9
:1008F000DD1FC050DE4FE881F981818180628183F4
:1009000081E090E002C08FEF9FEFDF91CF910895DB
:100910001F920F920FB60F9211240BB60F922F93C6
:100920003F934F935F936F937F938F939F93AF9377
:10093000BF93EF93FF93CF93DF931F92CDB7DEB7B3
:10094000BE016F5F7F4F809109020CDE882321F08A
:1009500089818093C60007C0E0910002F0910102F6
:1009600081818F7D81830F90DF91CF91FF91EF91F6
:10097000BF91AF919F918F917F916F915F914F91B7
:100980003F912F910F900BBE0F900FBE0F901F90B5
:1009900018951F920F920FB60F9211240BB60F925B
:1009A0002F933F934F935F936F937F938F939F9377
:1009B000AF93BF93EF93FF93CF93DF931F92CDB786
:1009C000DEB7BE016F5F7F4F80911302CBDD8823BE
:1009D00021F089818093CE0007C0E0910202F0915E
:1009E000030281818F7D81830F90DF91CF91FF91F1
:1009F000EF91BF91AF919F918F917F916F915F9197
:100A00004F913F912F910F900BBE0F900FBE0F9003
:100A10001F9018951F920F920FB60F9211240BB6CC
:100A20000F922F933F934F935F936F937F938F9387
:100A30009F93AF93BF93EF93FF93CF93DF931F9257
:100A4000CDB7DEB7BE016F5F7F4F80911D028ADD9B
:100A5000882321F089818093D60007C0E0910402A9
:100A6000F091050281818F7D81830F90DF91CF917D
:100A7000FF91EF91BF91AF919F918F917F916F9176
:100A80005F914F913F912F910F900BBE0F900FBE32
:100A90000F901F9018951F920F920FB60F9211246E
:100AA0000BB60F922F933F934F935F936F937F9368
:100AB0008F939F93AF93BF93EF93FF93CF93DF9366
:100AC0001F92CDB7DEB7BE016F5F7F4F80912702C7
:100AD00049DD882321F089818093360107C0E091A8
:100AE0000602F091070281818F7D81830F90DF9153
:100AF000CF91FF91EF91BF91AF919F918F917F9196
:100B00006F915F914F913F912F910F900BBE0F907E
:100B10000FBE0F901F9018951F920F920FB60F9255
:100B200011240BB60F922F933F934F935F936F93C4
:100B30007F938F939F93AF93BF93EF93FF936091B6
:100B4000C600809108029FDCFF91EF91BF91AF91A9
:100B50009F918F917F916F915F914F913F912F91D5
:100B60000F900BBE0F900FBE0F901F9018951F9205
:100B70000F920FB60F9211240BB60F922F933F9343
:100B80004F935F936F937F938F939F93AF93BF9395
:100B9000EF93FF936091CE008091120274DCFF917D
:100BA000EF91BF91AF919F918F917F916F915F91E5
:100BB0004F913F912F910F900BBE0F900FBE0F9052
:100BC0001F9018951F920F920FB60F9211240BB61B
:100BD0000F922F933F934F935F936F937F938F93D6
:100BE0009F93AF93BF93EF93FF936091D600809153
:100BF0001C0249DCFF91EF91BF91AF919F918F91C2
:100C00007F916F915F914F913F912F910F900BBE0C
:100C10000F900FBE0F901F9018951F920F920FB656
:100C20000F9211240BB60F922F933F934F935F9324
:100C30006F937F938F939F93AF93BF93EF93FF93A4
:100C400060913601809126021EDCFF91EF91BF91E9
:100C5000AF919F918F917F916F915F914F913F9154
:100C60002F910F900BBE0F900FBE0F901F901895F5
:040C7000F894FFCF26
:100C7400C000C800D00030010000B10A4000F10AF1
:100C840040000000310B2000710B20000000B10B6C
:100C94002000F10B20000000310C2000710C20001A
:00000001FF
