S00E000053797374656D2E7372656391
S113000071C000008FC000008DC000008BC00000D4
S113001089C0000087C0000085C0000083C00000C4
S113002081C000007FC000007DC000007BC00000D4
S113003079C0000077C0000075C0000073C00000E4
S113004071C000006FC000006DC000006BC00000F4
S113005069C00000B8C1000065C0000063C00000B2
S113006061C0000074C700006EC600005BC00000E1
S113007059C0000057C0000055C0000053C0000024
S113008051C000004FC000004DC000004BC0000034
S113009089C7000099C6000045C0000043C00000A5
S11300A041C000003FC000003DC000003BC0000054
S11300B039C0000037C0000035C0000033C0000064
S11300C031C000002FC000002DC0000096C7000002
S11300D0BCC6000027C00000BBC70000F7C6000074
S11300E021C0000011241FBECFEFD1E2DEBFCDBF7F
S11300F000E00CBF14E0A0E0B2E0E6EEF6E100E0C0
S11301000BBF02C007900D92AC34B107D9F72EE0B3
S1130110ACE4B4E001C01D92A33DB207E1F7D5D32E
S11301200C94710B6DCF2F923F924F925F926F920E
S11301307F928F929F92AF92BF92CF92DF92EF9273
S1130140FF920F931F93CF93DF9320915904309123
S11301508D0CF894EDB6FEB67894EBE5F4E0220F3E
S1130160220FE20FF11DE192F08220918C0C30916C
S11301705A0440917B04232B242B30915904409141
S11301808D0C68E0889433953770441F08F4441F3D
S1130190742F422319F06A95B1F7E7CF30935904CD
S11301A070938D0CEBE5F4E0330F330FE30FF11D87
S11301B021913081F8942DBF3EBF7894DF91CF9187
S11301C01F910F91FF90EF90DF90CF90BF90AF9071
S11301D09F908F907F906F905F904F903F902F9063
S11301E00895EEEEF1E0E80FF11D84910895010207
S11301F0040810204080682F692B000031F005D0DE
S113020000C000000197D9F700000895EF92FF9213
S11302101F93CF93DF931F92CDB7DEB7182F90E0D3
S1130220DC01AA0FBB1FAA0FBB1F9D01255A3B4F20
S11302307901D9011296ED91FC91139760839F0186
S113024021503109D9017C9321503109D9011C92E3
S11302507597D701ED93FC934983C3DF982F809161
S11302608C0C4981442329F0292F2095982F92231F
S113027001C0982B90938C0C80915904181307C0DB
S11302800F90DF91CF911F91FF90EF906ECF0F9061
S1130290DF91CF911F91FF90EF90089582E084BD8C
S11302A09AEF97BD80936E0083E085BD0895CF9348
S11302B0DF93F8948EEF80938C0C10927B04109251
S11302C05A041092590481E080938D0CCBE5D4E05C
S11302D08BE795E0998388839B838A838BE796E0F9
S11302E09D838C839F838E838BE797E09987888790
S11302F09B878A878BE798E09D878C879F878E876B
S11303008BE799E0998B888B9B8B8A8B8BE79AE0A0
S11303109D8B8C8B9F8B8E8B8BE79BE0998F888F2B
S11303209B8F8A8F8BE79CE09D8F8C8F9F8F8E8F06
S11303308AEA80937C0480937C0580937C06809376
S11303407C0780937C0880937C0980937C0A80934B
S11303507C0BA4DFEDB7FEB7A881B98185818C93AE
S1130360A881B981848111978C93A881B9818381F3
S113037012978C93A881B981828113978C93888179
S113038099812181FC013497208388819981059783
S11303909EBF8DBF7894DF91CF9108959C019FB744
S11303A0F894E0915904F0E0EE0FFF1FE458F34F86
S11303B03183208320915A0480918D0C822B809369
S11303C05A049FBFB0CE1F920F920FB60F92112402
S11303D00BB60F922F933F938F939F93AF93BF933B
S11303E0EF93FF9380914C0490914D04A0914E049F
S11303F0B0914F040196A11DB11D80934C049093BC
S11304004D04A0934E04B0934F0420915A04ECE79A
S1130410FCE031E080819181019781939193892B54
S113042019F4832F80952823330F8CE0EC38F807D8
S113043089F720935A04FF91EF91BF91AF919F9157
S11304408F913F912F910F900BBE0F900FBE0F9085
S11304501F901895CF936C9A74988FED91E0CBDE32
S1130460749A6C9885E490E0C6DECCB185EE90E099
S1130470C2DEC295C17081E08C27CF9108956C9A39
S11304807498749A6C988EE090E0B5DE8CB18071AB
S113049008956C9A7498813009F4749A8BE390E00F
S11304A0AADE749A6C980895EF92FF921F93CF93EB
S11304B0DF93C0E0D0E010E0EE24E394F12CDFDF22
S11304C0882339F0C7010C2E01C0880F0A94EAF77B
S11304D0182B83E190E08FDE2196C830D10579F79F
S11304E0812FDF91CF911F91FF90EF9008950F938B
S11304F01F93CF93DF93C0E0D0E0082F10E0C80132
S11305000C2E02C0959587950A94E2F78170C1DF9D
S11305102196C830D10599F787E790E0DF91CF9114
S11305201F910F9168CEEF92FF920F931F93CF9379
S1130530DF93CDB7DEB72A970FB6F894DEBF0FBEB0
S1130540CDBF88DF8CECD3DF84E4D1DF87E790E094
S113055052DE80DF8CECCBDF8EEBC9DF8E010F5FC8
S11305601F4F7E014AE0E40EF11C9EDFF8018193E7
S11305708F01EE15FF05C9F79A818981913838F406
S1130580F0E19F9F9001112482958F70822B97FF39
S113059005C0819582958F70806F819590E02A9631
S11305A00FB6F894DEBF0FBECDBFDF91CF911F9180
S11305B00F91FF90EF900895CF93DF93CDB7DEB7FF
S11305C02B970FB6F894DEBF0FBECDBF26E030E008
S11305D040E05BE460E070E080E090E04CD244E313
S11305E0E42E42E0F42E6624639451E9C52E53E0D0
S11305F0D52E00E912E06BE5A62E63E0B62E7BE271
S1130600872E73E0972E45E050E0BE016F5F7F4F69
S113061080E090E039D3892B09F42DC189818E8340
S11306208A818F836AEE72E0CE01069680D5892B8B
S113063051F447E150E06DEE72E080E090E070D359
S11306406092920C1FC165E073E0CE0106966FD5EF
S1130650892BA9F49091920C81E0911180E0809310
S1130660920C8091920C882329F047E150E06DEEC2
S113067072E005C149E150E068E073E000C162E264
S113068073E0CE01069653D5892B51F449E150E02D
S113069068E073E080E090E043D31092920CF2C0E3
S11306A09091920C7B808C8179861A86992309F427
S11306B053C081118A8765E273E0CE01069637D56F
S11306C0892BD1F4609150048091020281110FC0F2
S11306D070E0CB0133E0880F991F3A95E1F7680F7A
S11306E0791FCB0180569F4F65E070E0DCD41F92E8
S11306F06F93FF92EF9255C068E273E0CE010696C5
S113070016D5892B81F4CE010996F4D490938F0CDD
S113071080938E0C80918E0C90918F0C9F938F936D
S11307209F928F923EC068E573E0CE010696FFD497
S1130730892B09F09BC02CE3729EC0011124909375
S113074001028093000280910002909101029F9324
S11307508F93BF92AF9225C081118A876EE873E0B0
S1130760CE010696E4D4892BC1F5CE010996C2D4F4
S11307709093910C8093900C8091900C9091910C9B
S113078097FD1DC08091900C9091910C8E3791052E
S1130790B4F48091900C9091910C9F938F93DF927D
S11307A0CF921F930F93D4D40F900F900F900F906C
S11307B00F900F9097FF06C06EE472E005C061E6EB
S11307C072E002C060E972E0FB0101900020E9F7E9
S11307D03197AF01461B570B52C060EC73E0CE015A
S11307E00696A5D4892B19F4709203022EC067EEE5
S11307F073E0CE0106969BD4892BC1F586E4781666
S1130800A1F028E57216F9F083E478122AC0609208
S1130810020247E150E065E074E080E090E080D2BD
S11308209AECE92E92E0F92E2DC0109202024AE1D0
S113083050E06AEE73E080E090E072D227EAE22EA4
S113084022E0F22E1FC06092020243E250E063EC09
S113085073E080E090E064D281E9E82E82E0F82E33
S113086011C045E150E06DE174E009C046E150E09B
S113087067E773E004C047E150E063E374E080E0BD
S113088090E04ED288EE93E089DDBDCE249AC0E19B
S11308908091030290E082DD85B18C2785B9F8CF81
S11308A0CF93DF931F92CDB7DEB7D4DD811105C09E
S11308B0D1DD898338DC8981F9CF35DE809350041A
S11308C08091030290E06ADDF8CFF1DC41E06CED49
S11308D072E082E09BDC41E060E574E081E096DC5C
S11308E041E066E474E080E091DC80E090E008950B
S11308F0CF93DF9398E0899FF0011124DF01AD5677
S1130900B34F13968C9113978130A1F17FB7F8946C
S11309108C911696CD91DC911797C80FD11D6883E1
S113092014962D913C9115972F5F3F4F15963C934C
S11309302E93149713968C911397823011F4139677
S11309401C92ED56F34F90818281492F50E04F5F06
S11309505F4F282F30E042235323218130E09F5FF3
S1130960892380834217530711F481E083837FBF77
S113097081E001C080E0DF91CF910895CF93DF93B0
S11309809B0198E0899FF0011124DF01AD56B34F1C
S113099013968C9113978230C1F17FB7F894119616
S11309A08C9111971696CD91DC911797C80FD11D94
S11309B08881E901888314962D913C9115972150E3
S11309C0310915963C932E93149713968C91139793
S11309D0813011F413961C92ED56F34F918182816C
S11309E0492F50E04F5F5F4F282F30E042235323BD
S11309F0208130E09F5F892381834217530711F4DC
S1130A0082E083837FBF81E001C080E0DF91CF91EA
S1130A1008959C01215031092F3F310509F048F513
S1130A2028233923232B29F5E1E5F4E020E030E005
S1130A304191411119C0F90193E0EE0FFF1F9A95FE
S1130A40E1F7ED56F34F108211828150828382E0E8
S1130A5083831582148277836683F901EF5AFB4FEF
S1130A6081E08083822F08952F5F3F4F2830310526
S1130A70F9F68FEF0895BF92CF92DF92EF92FF9233
S1130A800F931F93CF93DF938430910508F0D0C068
S1130A90B22E6A017B018C018AE0809FE001819F74
S1130AA0D00D1124C45FDD4F6A817B818C819D81CF
S1130AB0B0DF88836E817F8188859985AADF8983E9
S1130AC0000F111FF801EC5FFD4FA081B1819C91D3
S1130AD092609C9380E8C81680E7D806E104F1048C
S1130AE009F478C094F580E8C81685E2D806E104D4
S1130AF0F10409F465C0ACF480E6C81689E0D806B0
S1130B00E104F10409F457C080ECC81682E1D80668
S1130B10E104F10409F077C040EA51E060E070E0DC
S1130B2075C080E4C81688E3D806E104F10409F42A
S1130B304CC0C1148BE4D806E104F10409F063C08D
S1130B4047E650E060E070E061C0C1148CE2D80672
S1130B5081E0E806F10409F447C094F4C11486E97D
S1130B60D806E104F104D9F1C11481EED806E104F8
S1130B70F10409F048C042E250E060E070E046C091
S1130B80C11484E8D80683E0E806F10491F180E911
S1130B90C81680EDD80683E0E806F10479F1C114A3
S1130BA082ECD80681E0E806F10469F540E150E002
S1130BB060E070E02BC040E453E060E070E026C0E9
S1130BC04FEC50E060E070E021C04AE850E060E0A3
S1130BD070E01CC044E450E060E070E017C043E300
S1130BE050E060E070E012C049E150E060E070E085
S1130BF00DC048E050E060E070E008C047E050E01D
S1130C0060E070E003C04FEF5FEFBA018FB7F89474
S1130C10F801EC5FFD4F0190F081E02D5583448392
S1130C20B28298E991838FBF789480E090E002C00B
S1130C308FEF9FEFDF91CF911F910F91FF90EF9076
S1130C40DF90CF90BF900895CF93DF931F92CDB7DD
S1130C50DEB719822AE0AC01249FC001259F900DC4
S1130C601124FC01E45FFD4FBE016F5F7F4F808163
S1130C7085DE882319F0898190E002C08FEF9FEF11
S1130C800F90DF91CF910895CF92DF92EF92FF9270
S1130C900F931F93CF93DF937C016B018A01C0E014
S1130CA0D0E0C017D1078CF4C701CEDF8F3F59F0D5
S1130CB0F601EC0FFD1F8D3021F4108281E090E0ED
S1130CC006C0808321962FDAECCF80E090E0DF919C
S1130CD0CF911F910F91FF90EF90DF90CF900895E7
S1130CE0CF93DF93EC018AE08C9FF0018D9FF00D90
S1130CF01124E45FFD4F8181FBDD882361F0CC0F7B
S1130D00DD1FCC5FDD4FE881F981818180628183C1
S1130D1081E090E002C08FEF9FEFDF91CF910895C3
S1130D200F931F93CF93DF938C01EB01699166239B
S1130D3019F0C801D5DFFACF81E090E0DF91CF91BF
S1130D401F910F9108951F920F920FB60F921124C5
S1130D500BB60F922F933F934F935F936F937F93B1
S1130D608F939F93AF93BF93EF93FF93CF93DF93AF
S1130D701F92CDB7DEB7BE016F5F7F4F80910D022A
S1130D80FDDD882321F089818093C60007C0E091AE
S1130D900402F091050281818F7D81830F90DF91A0
S1130DA0CF91FF91EF91BF91AF919F918F917F91DF
S1130DB06F915F914F913F912F910F900BBE0F90C8
S1130DC00FBE0F901F9018951F920F920FB60F929F
S1130DD011240BB60F922F933F934F935F936F930E
S1130DE07F938F939F93AF93BF93EF93FF93CF938F
S1130DF0DF931F92CDB7DEB7BE016F5F7F4F809147
S1130E001702BCDD882321F089818093CE0007C0BE
S1130E10E0910602F091070281818F7D81830F901A
S1130E20DF91CF91FF91EF91BF91AF919F918F91FE
S1130E307F916F915F914F913F912F910F900BBED6
S1130E400F900FBE0F901F9018951F920F920FB620
S1130E500F9211240BB60F922F933F934F935F93EE
S1130E606F937F938F939F93AF93BF93EF93FF936E
S1130E70CF93DF931F92CDB7DEB7BE016F5F7F4F75
S1130E80809121027BDD882321F089818093D60023
S1130E9007C0E0910802F091090281818F7D81836E
S1130EA00F90DF91CF91FF91EF91BF91AF919F91FF
S1130EB08F917F916F915F914F913F912F910F90FF
S1130EC00BBE0F900FBE0F901F9018951F920F929C
S1130ED00FB60F9211240BB60F922F933F934F939B
S1130EE05F936F937F938F939F93AF93BF93EF938E
S1130EF0FF93CF93DF931F92CDB7DEB7BE016F5F31
S1130F007F4F80912B023ADD882321F089818093E1
S1130F10360107C0E0910A02F0910B0281818F7DB6
S1130F2081830F90DF91CF91FF91EF91BF91AF91AA
S1130F309F918F917F916F915F914F913F912F91ED
S1130F400F900BBE0F900FBE0F901F9018951F921D
S1130F500F920FB60F9211240BB60F922F933F935B
S1130F604F935F936F937F938F939F93AF93BF93AD
S1130F70EF93FF936091C60080910C02B9DCFF915E
S1130F80EF91BF91AF919F918F917F916F915F91FD
S1130F904F913F912F910F900BBE0F900FBE0F906A
S1130FA01F9018951F920F920FB60F9211240BB633
S1130FB00F922F933F934F935F936F937F938F93EE
S1130FC09F93AF93BF93EF93FF936091CE00809173
S1130FD016028EDCFF91EF91BF91AF919F918F919B
S1130FE07F916F915F914F913F912F910F900BBE25
S1130FF00F900FBE0F901F9018951F920F920FB66F
S11310000F9211240BB60F922F933F934F935F933C
S11310106F937F938F939F93AF93BF93EF93FF93BC
S11310206091D6008091200263DCFF91EF91BF9123
S1131030AF919F918F917F916F915F914F913F916C
S11310402F910F900BBE0F900FBE0F901F9018950D
S11310501F920F920FB60F9211240BB60F922F937B
S11310603F934F935F936F937F938F939F93AF932C
S1131070BF93EF93FF936091360180912A0238DC8D
S1131080FF91EF91BF91AF919F918F917F916F915C
S11310905F914F913F912F910F900BBE0F900FBE18
S11310A00F901F90189597FB072E16F4009406D006
S11310B077FD08D00BD007FC05D03EF490958195C0
S11310C09F4F0895709561957F4F0895AA1BBB1B90
S11310D051E107C0AA1FBB1FA617B70710F0A61B34
S11310E0B70B881F991F5A95A9F780959095BC0155
S11310F0CD010895FC0188279927E8942191203295
S1131100E9F3293010F02E30C8F32B3239F02D32A8
S113111031F4689403C014D0820F911D219120539F
S11311202A30C8F31EF4909581959F4F0895FB01D2
S1131130DC018D91019080190110D9F3990B089568
S11311407AE0979F902D879F802D910D112408950B
S11311500F931F93CF93DF93CDB7DEB72E970FB6C0
S1131160F894DEBF0FBECDBF0E891F8986E08C8345
S11311701A8309838FEF9FE79E838D83AE01465EBA
S11311805F4F688D798DCE01019611D02F813885FE
S1131190F801E20FF31F10822E960FB6F894DEBF0B
S11311A00FBECDBFDF91CF911F910F9108952F9264
S11311B03F924F925F926F927F928F929F92AF92E3
S11311C0BF92CF92DF92EF92FF920F931F93CF9330
S11311D0DF93CDB7DEB72C970FB6F894DEBF0FBE02
S11311E0CDBF7C016B018A01FC01178216828381C9
S11311F081FFB0C1CE0101964C01F7019381F60144
S113120093FD859193FF81916F01882309F49EC119
S1131210853239F493FD859193FF81916F01853275
S113122021F4B70190E0C7D1E8CF512C312C20E054
S11312302032A0F48B3269F030F4803259F08332DA
S113124069F420612CC08D3239F0803339F4216087
S113125026C02260246023C0286021C027FD27C047
S113126030ED380F3A3078F426FF06C0FAE05F9E7E
S1131270300D1124532E13C08AE0389E300D1124F2
S1131280332E20620CC08E3221F426FD5FC120640F
S113129006C08C3611F4206802C0883641F4F60189
S11312A093FD859193FF81916F018111C1CF982F97
S11312B09F7D9554933028F40C5F1F4FFFE3F9830F
S11312C00DC0833631F0833771F0833509F057C090
S11312D021C0F801808189830E5F1F4F4424439409
S11312E0512C540114C03801F2E06F0E711CF80146
S11312F0A080B18026FF03C0652D70E002C06FEFAF
S11313007FEFC5012C874CD12C0183012C852F77CD
S1131310222E16C03801F2E06F0E711CF801A08075
S1131320B18026FF03C0652D70E002C06FEF7FEF30
S1131330C5012C872AD12C012C852068222E8301FB
S113134023FC19C0832D90E048165906A0F4B70178
S113135080E290E030D13A94F5CFF50127FC8591F5
S113136027FE81915F01B70190E025D131103A94B5
S1131370F1E04F1A51084114510479F7DEC0843664
S113138011F0893631F5F80127FF07C060817181BA
S1131390828193810C5F1F4F08C060817181072E89
S11313A0000C880B990B0E5F1F4F2F76722E97FF40
S11313B009C090958095709561957F4F8F4F9F4F91
S11313C02068722E2AE030E0A4012DD1A82EA8189E
S11313D043C0853729F42F7EB22E2AE030E025C0A1
S11313E0F22FF97FBF2E8F36C1F018F4883579F0CB
S11313F0ADC0803719F0883721F0A8C02F2F2061A5
S1131400B22EB4FE0DC08B2D8460B82E09C024FF0B
S11314100AC09F2F9660B92E06C028E030E005C0B0
S113142020E130E002C020E132E0F801B7FE07C05D
S113143060817181828193810C5F1F4F06C060813E
S1131440718180E090E00E5F1F4FA401ECD0A82EC4
S1131450A818FB2DFF777F2E76FE0BC0372D3E7F1D
S1131460A51450F474FE0AC072FC08C0372D3E7EE9
S113147005C0BA2C372D03C0BA2C01C0B52C34FFDB
S11314800DC0FE01EA0DF11D8081803311F4397E17
S113149009C032FF06C0B394B39404C0832F867886
S11314A009F0B39433FD12C030FF06C05A2CB314B4
S11314B018F4530C5B18B32CB31460F4B70180E236
S11314C090E03C8778D0B3943C85F6CFB31410F405
S11314D03B1801C0312C34FF11C0B70180E390E008
S11314E03C8769D03C8532FF16C031FD03C088E7D4
S11314F090E002C088E590E0B7010CC0832F8678A5
S113150051F031FF02C08BE201C080E237FD8DE271
S1131510B70190E050D0A51430F4B70180E390E017
S11315204AD05A94F8CFAA94F401EA0DF11D8081AF
S1131530B70190E040D0A110F6CF332009F45DCE7E
S1131540B70180E290E037D03A94F7CFF701868173
S1131550978102C08FEF9FEF2C960FB6F894DEBFF1
S11315600FBECDBFDF91CF911F910F91FF90EF90F0
S1131570DF90CF90BF90AF909F908F907F906F90AF
S11315805F904F903F902F900895FC01059061501B
S113159070400110D8F7809590958E0F9F1F089585
S11315A0FC016150704001900110D8F7809590952E
S11315B08E0F9F1F08950F931F93CF93DF93FB010B
S11315C0238121FD03C08FEF9FEF28C022FF16C0A7
S11315D046815781248135814217530744F4A08101
S11315E0B1819D012F5F3F4F318320838C932681EE
S11315F037812F5F3F4F3783268310C0EB01092FBC
S1131600182F0084F185E02D1995892BE1F68E8140
S11316109F8101969F838E83812F902FDF91CF919D
S11316201F910F910895FA01AA27283051F1203112
S113163081F1E8946F936E7F6E5F7F4F8F4F9F4F62
S1131640AF4FB1E03ED0B4E03CD0670F781F891FA4
S11316509A1FA11D680F791F8A1F911DA11D6A0F72
S1131660711D811D911DA11D20D009F468943F9125
S11316702AE0269F11243019305D3193DEF6CF0124
S11316800895462F4770405D4193B3E00FD0C9F7EA
S1131690F6CF462F4F70405D4A3318F0495D31FD57
S11316A04052419302D0A9F7EACFB4E0A6959795AA
S11316B0879577956795BA95C9F700976105710580
S11316C008959B01AC010A2E0694579547953795CA
S11316D02795BA95C9F7620F731F841F951FA01D24
S10916E00895F894FFCF09
S11316E63C0001FAC000C800D00030010000D30C51
S11316F64000130D40000000530D2000930D200000
S11317060000D30D2000130E20000000530E20000D
S1131716930E20004C6173742074656D703A20300A
S113172678257820726177206865780A0D00466FFF
S1131736726D617474696E67204572726F720A0DF8
S113174600496E76616C69642074656D70657261BA
S1131756747572652073656C656374696F6E2E208B
S11317665375636B7320746F207375636B2E0A0D48
S1131776004C6173742074656D703A20257820726C
S1131786617720686578004C6173742074656D70A8
S11317963A2025642064656772656573204661682E
S11317A672656E686569740A0D004C617374207401
S11317B6656D703A202564206465677265657320DB
S11317C643656C736975730A0D00534D00456E7459
S11317D66572696E672053657276696365204D6F1D
S11317E664650A0D00544D00456E746572696E6732
S11317F6204F7065726174696E67204D6F64650A67
S11318060D004F4D004754004F56004F7665722D1C
S113181674656D7065726174757265207365742084
S1131826746F20256420646567726565732043655B
S11318366C736975730A0D00534F0054696D656FB7
S113184675742073657420746F2025642073656332
S11318566F6E64730A0D00556E7265636F676E6909
S11318667A656420636F6D6D616E640A0D0053546E
S113187600536574207461726765742074656D70B5
S11318866572617475726520746F202564206465C1
S113189667726565732043656C736975730A0D0019
S11318A653520053657420666F726D617420746FB1
S11318B62043656C73697573204865786164656354
S11318C6696D616C0A0D0053440053657420666F9C
S11318D6726D617420746F2046616872656E686506
S11318E669740A0D0053657420666F726D61742005
S11318F6746F2043656C736975730A0D00556E72B7
S113190665636F676E697A656420666F726D61746C
S11319160A0D004572726F722072656164696E67A2
S10F192620636F6D6D616E640A0D00009B
S9030000FC
