S00E000053797374656D2E7372656391
S113000071C000008EC000008CC000008AC00000D7
S113001088C0000086C0000084C0000082C00000C8
S113002080C000007EC000007CC000007AC00000D8
S113003078C0000076C0000074C0000072C00000E8
S113004070C000006EC000006CC000006AC00000F8
S113005068C0000067C0000064C0000062C0000007
S113006060C00000FFC20000F9C100005AC00000D7
S113007058C0000056C0000054C0000052C0000028
S113008050C000004EC000004CC000004AC0000038
S113009014C3000024C2000044C0000042C0000099
S11300A040C000003EC000003CC000003AC0000058
S11300B038C0000036C0000034C0000032C0000068
S11300C030C000002EC000002CC0000021C300007E
S11300D047C2000026C0000046C3000082C20000E0
S11300E020C0000011241FBECFEFD1E2DEBFCDBF80
S11300F000E00CBF12E0A0E0B2E0E0ECF7E000E0CA
S11301000BBF02C007900D92A033B107D9F724E0CA
S1130110A0E3B2E001C01D92A53BB207E1F766D0AF
S11301204DC36ECF1F920F920FB60F9211240BB6D0
S11301300F922F933F934F935F936F938F939F935C
S1130140AF93BF93EF93FF9380915E0290915F0210
S1130150A0916002B09161020196A11DB11D80932E
S11301605E0290935F02A0936002B093610260917B
S1130170720280E090E041E050E0FC01EE0FFF1FCE
S1130180EE59FD4F20813181232BC1F0FC01EE0F8C
S1130190FF1FEE59FD4F20813181215031093183F8
S11301A0208320813181232B49F49A01082E02C037
S11301B0220F331F0A94E2F72095622301968730B9
S11301C09105D9F660937202FF91EF91BF91AF91BF
S11301D09F918F916F915F914F913F912F910F90CC
S11301E00BBE0F900FBE0F901F901895CF93DF9307
S11301F01F921F92CDB7DEB7BE016F5F7F4F88E0BD
S113020090E0EED0BE016E5F7F4F80E078D061E673
S113021080E006D0BE016E5F7F4F80E070D0F2CFE9
S1130220CF93DF9390E0FC01EE0FFF1FEE0FFF1F53
S1130230EE0FFF1FEB58FD4F2381213009F458C006
S1130240AFB7F894FC01EE0FFF1FEE0FFF1FEE0F88
S1130250FF1FEB58FD4F2081C681D781C20FD11DEE
S11302606883248135812F5F3F4F35832483238125
S1130270223051F4FC01EE0FFF1FEE0FFF1FEE0FB3
S1130280FF1FEB58FD4F1382FC01EE0FFF1FEE0F13
S1130290FF1FEE0FFF1FEB58FD4F30812281632FAC
S11302A070E06F5F7F4F422F50E0642375234181DC
S11302B050E06417750769F0880F991F880F991F1C
S11302C0880F991FFC01EB58FD4F3F5F23232083C8
S11302D011C0880F991F880F991F880F991FFC015F
S11302E0EB58FD4F3F5F2323208381E0838302C0CB
S11302F080E002C0AFBF81E0DF91CF910895CF933A
S1130300DF9390E0FC01EE0FFF1FEE0FFF1FEE0FD7
S1130310FF1FEB58FD4F2381223009F45AC0AFB7B9
S1130320F894FC01EE0FFF1FEE0FFF1FEE0FFF1FEF
S1130330EB58FD4F2181C681D781C20FD11D288181
S1130340EB012883248135812150310935832483AD
S11303502381213051F4FC01EE0FFF1FEE0FFF1F2C
S1130360EE0FFF1FEB58FD4F1382FC01EE0FFF1F32
S1130370EE0FFF1FEE0FFF1FEB58FD4F318122815F
S1130380632F70E06F5F7F4F422F50E0642375232B
S1130390408150E06417750769F0880F991F880F32
S11303A0991F880F991FFC01EB58FD4F3F5F2323D2
S11303B0218311C0880F991F880F991F880F991FD7
S11303C0FC01EB58FD4F3F5F2323218382E08383AD
S11303D002C080E002C0AFBF81E0DF91CF910895F9
S11303E09C01215031092F3F310509F098F528234C
S11303F03923232B89F520913002222341F0E1E3B4
S1130400F2E021E030E0419141111DC002C020E042
S113041030E0F901EE0FFF1FEE0FFF1FEE0FFF1F7D
S1130420EB58FD4F108211828150828382E08383D6
S11304301582148277836683F901E05DFD4F81E0C4
S11304408083822F08952F5F3F4F28303105D9F6DE
S11304508FEF08958FEF08958FEF08951F920F92F5
S11304600FB60F9211240BB60F922F933F934F9315
S11304705F936F937F938F939F93AF93BF93EF9308
S1130480FF93CF93DF931F92CDB7DEB7BE016F5FAB
S11304907F4F8091090233DF882321F08981809383
S11304A0C60007C0E0910002F091010281818F7DB6
S11304B081830F90DF91CF91FF91EF91BF91AF9125
S11304C09F918F917F916F915F914F913F912F9168
S11304D00F900BBE0F900FBE0F901F9018951F9298
S11304E00F920FB60F9211240BB60F922F933F93D6
S11304F04F935F936F937F938F939F93AF93BF9328
S1130500EF93FF93CF93DF931F92CDB7DEB7BE0176
S11305106F5F7F4F80911302F2DE882321F089817F
S11305208093CE0007C0E0910202F0910302818122
S11305308F7D81830F90DF91CF91FF91EF91BF91D8
S1130540AF919F918F917F916F915F914F913F9167
S11305502F910F900BBE0F900FBE0F901F90189508
S11305601F920F920FB60F9211240BB60F922F9376
S11305703F934F935F936F937F938F939F93AF9327
S1130580BF93EF93FF93CF93DF931F92CDB7DEB763
S1130590BE016F5F7F4F80911D02B1DE882321F081
S11305A089818093D60007C0E0910402F09105028E
S11305B081818F7D81830F90DF91CF91FF91EF91A6
S11305C0BF91AF919F918F917F916F915F914F9167
S11305D03F912F910F900BBE0F900FBE0F901F9065
S11305E018951F920F920FB60F9211240BB60F920B
S11305F02F933F934F935F936F937F938F939F9327
S1130600AF93BF93EF93FF93CF93DF931F92CDB735
S1130610DEB7BE016F5F7F4F8091270270DE8823B3
S113062021F089818093360107C0E0910602F091A0
S1130630070281818F7D81830F90DF91CF91FF919C
S1130640EF91BF91AF919F918F917F916F915F9146
S11306504F913F912F910F900BBE0F900FBE0F90B3
S11306601F9018951F920F920FB60F9211240BB67C
S11306700F922F933F934F935F936F937F938F9337
S11306809F93AF93BF93EF93FF936091C6008091C4
S11306900802C6DDFF91EF91BF91AF919F918F91B9
S11306A07F916F915F914F913F912F910F900BBE6E
S11306B00F900FBE0F901F9018951F920F920FB6B8
S11306C00F9211240BB60F922F933F934F935F9386
S11306D06F937F938F939F93AF93BF93EF93FF9306
S11306E06091CE00809112029BDDFF91EF91BF914A
S11306F0AF919F918F917F916F915F914F913F91B6
S11307002F910F900BBE0F900FBE0F901F90189556
S11307101F920F920FB60F9211240BB60F922F93C4
S11307203F934F935F936F937F938F939F93AF9375
S1130730BF93EF93FF936091D60080911C0270DD0C
S1130740FF91EF91BF91AF919F918F917F916F91A5
S11307505F914F913F912F910F900BBE0F900FBE61
S11307600F901F9018951F920F920FB60F9211249D
S11307700BB60F922F933F934F935F936F937F9397
S11307808F939F93AF93BF93EF93FF936091360141
S11307908091260245DDFF91EF91BF91AF919F912A
S11307A08F917F916F915F914F913F912F910F9016
S11307B00BBE0F900FBE0F901F901895F894FFCFAB
S11307C0C000C800D00030010000B5024000F502AE
S11307D04000000035032000750320000000B5032D
S11307E02000F503200000003504200075042000DB
S9030000FC
