S00E000053797374656D2E7372656391
S113000071C000008EC000008CC000008AC00000D7
S113001088C0000086C0000084C0000082C00000C8
S113002080C000007EC000007CC000007AC00000D8
S113003078C0000076C0000074C0000072C00000E8
S113004070C000006EC000006CC000006AC00000F8
S113005068C00000A8C1000064C0000062C00000C5
S113006060C00000F7C60000F1C500005AC00000DF
S113007058C0000056C0000054C0000052C0000028
S113008050C000004EC000004CC000004AC0000038
S11300900CC700001CC6000044C0000042C00000A1
S11300A040C000003EC000003CC000003AC0000058
S11300B038C0000036C0000034C0000032C0000068
S11300C030C000002EC000002CC0000019C7000082
S11300D03FC6000026C000003EC700007AC60000EC
S11300E020C0000011241FBECFEFD1E2DEBFCDBF80
S11300F000E00CBF12E0A0E0B2E0E2ECFFE000E0C0
S11301000BBF02C007900D92A438B107D9F72DE0B8
S1130110A4E8B2E001C01D92A830B207E1F7CBD247
S11301204EC76ECF2F923F924F925F926F927F9203
S11301308F929F92AF92BF92CF92DF92EF92FF92F3
S11301400F931F93CF93DF93209191023091C50AAF
S1130150F894EDB6FEB67894E3E9F2E0220F220FAC
S1130160E20FF11DE192F0822091C40A30919202D3
S11301704091B302232B242B309191024091C50A64
S113018068E0889433953770441F08F4441F742F33
S1130190422319F06A95B1F7E7CF30939102709337
S11301A0C50AE3E9F2E0330F330FE30FF11D2191A8
S11301B03081F8942DBF3EBF7894DF91CF911F9189
S11301C00F91FF90EF90DF90CF90BF90AF909F90F2
S11301D08F907F906F905F904F903F902F900895F5
S11301E0ECEEF1E0E80FF11D84910895010204089A
S11301F010204080682F692B000031F005D000C02A
S113020000000197D9F700000895CF93DF93C82F1A
S1130210D42F90E0DC01AA0FBB1FAA0FBB1FAD01B6
S11302204D565D4FDA011296ED91FC911397608360
S11302309F0121503109D9017C9321503109D90101
S11302401C927597DA01ED93FC93CADFDD2341F02C
S1130250982F90958091C40A98239093C40A05C05E
S11302609091C40A982B9093C40A80919102C81368
S113027001C07ADFDF91CF91089582E084BD9AEFC7
S113028097BD80936E0083E085BD0895CF93DF937F
S1130290F8948EEF8093C40A1092B30210929202E3
S11302A01092910281E08093C50AC3E9D2E083EB06
S11302B093E0998388839B838A8383EB94E09D8373
S11302C08C839F838E8383EB95E0998788879B87B4
S11302D08A8783EB96E09D878C879F878E8783EB45
S11302E097E0998B888B9B8B8A8B83EB98E09D8B13
S11302F08C8B9F8B8E8B83EB99E0998F888F9B8F50
S11303008A8F83EB9AE09D8F8C8F9F8F8E8F8AEAE2
S11303108093B4028093B4038093B4048093B405AF
S11303208093B4068093B4078093B4088093B4098F
S1130330A4DFEDB7FEB7A881B98185818C93A8812C
S1130340B981848111978C93A881B9818381129793
S11303508C93A881B981828113978C938881998128
S11303602181FC01349720838881998105979EBF60
S11303708DBF7894DF91CF9108959C019FB7F89435
S1130380E0919102F0E0EE0FFF1FEC54F54F318342
S11303902083209192028091C50A822B809392023D
S11303A09FBFC0CE08951F920F920FB60F921124D3
S11303B00BB60F922F933F934F935F938F939F931B
S11303C0AF93BF93EF93FF93809184029091850242
S11303D0A0918602B09187020196A11DB11D809360
S11303E0840290938502A0938602B0938702309191
S11303F09202E4EBFAE044EC5AE021E0808191813E
S1130400019781939193892B19F4822F8095382336
S1130410220FE417F50791F730939202FF91EF91C1
S1130420BF91AF919F918F915F914F913F912F9188
S11304300F900BBE0F900FBE0F901F901895CF9387
S11304406C9A74988FED91E0D5DE749A6C9885E47B
S113045090E0D0DECCB185EE90E0CCDEC295C170E8
S113046081E08C27CF9108956C9A7498749A6C9853
S11304708EE090E0BFDE8CB1807108956C9A749820
S1130480813009F4749A8BE390E0B4DE749A6C982A
S11304900895EF92FF921F93CF93DF93C0E0D0E0D3
S11304A010E0EE24E394F12CDFDF882341F0C70150
S11304B00C2E02C0880F991F0A94E2F7182B83E1CF
S11304C090E098DE2196C830D10571F7812FDF9135
S11304D0CF911F91FF90EF9008950F931F93CF93A7
S11304E0DF93C0E0D0E0082F10E0C8010C2E02C05A
S11304F0959587950A94E2F78170C0DF2196C830FC
S1130500D10599F787E790E075DEDF91CF911F91D0
S11305100F910895EF92FF920F931F93CF93DF9360
S1130520CDB7DEB72A970FB6F894DEBF0FBECDBFA6
S113053086DF8CECD2DF84E4D0DF87E790E05ADEFC
S11305407EDF8CECCADF8EEBC8DF8E010F5F1F4F9E
S11305507E018AE0E80EF11C9CDFF80181938F0193
S1130560EE15FF05C9F79A818981913840F4869583
S113057099231CF481958695819590E003C0992375
S1130580E4F7F8CF2A960FB6F894DEBF0FBECDBFBE
S1130590DF91CF911F910F91FF90EF900895CF932A
S11305A0DF93CDB7DEB727970FB6F894DEBF0FBE43
S11305B0CDBF26E030E040E05BE460E070E080E046
S11305C090E0AAD111E044E050E0BE016F5F7F4F9C
S11305D080E090E0C6D2892B09F44AC089818D83DA
S11305E08A818E8360E372E0CE010596DFD4892B85
S11305F051F447E150E063E372E080E090E009D316
S11306001093C70A32C06BE472E0CE010596CED4D3
S1130610892BD9F49091C70A812F911180E080939E
S1130620C70A8091C70A882341F047E150E063E399
S113063072E080E090E0EDD218C049E150E06EE451
S113064072E080E090E0E5D210C068E672E0CE018E
S11306500596ACD4892B49F449E150E06EE472E08C
S113066080E090E0D6D21092C70A8091C70A07C0F2
S113067047E150E06BE672E080E090E0CAD288EE99
S113068093E07BDEA0CF249AC0E188EE93E075DE90
S113069085B18C2785B9F9CFD2DE811105C0CFDEB3
S11306A0C82F40DDCC23D9F335DF809388028AEF4D
S11306B090E063DEF9CFEADD41E06FEC72E082E0C6
S11306C0A4DD41E06CE473E081E09FDD41E063E49C
S11306D073E080E09ADD80E090E00895CF93DF93AB
S11306E090E0FC01EE0FFF1FEE0FFF1FEE0FFF1F48
S11306F0E853F54F2381213009F458C0AFB7F8947B
S1130700FC01EE0FFF1FEE0FFF1FEE0FFF1FE8535C
S1130710F54F2081C681D781C20FD11D6883248102
S113072035812F5F3F4F358324832381223051F459
S1130730FC01EE0FFF1FEE0FFF1FEE0FFF1FE8532C
S1130740F54F1382FC01EE0FFF1FEE0FFF1FEE0F9C
S1130750FF1FE853F54F30812281632F70E06F5FF4
S11307607F4F422F50E064237523418150E064178A
S1130770750769F0880F991F880F991F880F991FB3
S1130780FC01E853F54F3F5F2323208311C0880FFA
S1130790991F880F991F880F991FFC01E853F54F83
S11307A03F5F2323208381E0838302C080E002C073
S11307B0AFBF81E0DF91CF910895CF93DF9390E0B5
S11307C0FC01EE0FFF1FEE0FFF1FEE0FFF1FE8539C
S11307D0F54F2381223009F45AC0AFB7F894FC01D5
S11307E0EE0FFF1FEE0FFF1FEE0FFF1FE853F54F35
S11307F02181C681D781C20FD11D2881EB012883B5
S1130800248135812150310935832483238121308A
S113081051F4FC01EE0FFF1FEE0FFF1FEE0FFF1F41
S1130820E853F54F1382FC01EE0FFF1FEE0FFF1F7D
S1130830EE0FFF1FE853F54F31812281632F70E0E3
S11308406F5F7F4F422F50E064237523408150E057
S11308506417750769F0880F991F880F991F880F0F
S1130860991FFC01E853F54F3F5F2323218311C0F7
S1130870880F991F880F991F880F991FFC01E8534F
S1130880F54F3F5F2323218382E0838302C080E00E
S113089002C0AFBF81E0DF91CF9108959C01215048
S11308A031092F3F310509F098F528233923232BEB
S11308B089F520918902222341F0EAE8F2E021E05F
S11308C030E0419141111DC002C020E030E0F90147
S11308D0EE0FFF1FEE0FFF1FEE0FFF1FE853F54F44
S11308E0108211828150828382E083831582148274
S11308F077836683F901E757FD4F81E08083822F78
S113090008952F5F3F4F28303105D9F68FEF0895B2
S11309108FEF08958FEF08956F927F928F929F9239
S1130920AF92BF92CF92DF92EF92FF921F93CF9339
S1130930DF938430910508F0E1C0122F6A017B0136
S11309403C014C01880C991C5C01AA0CBB1CAA0C30
S1130950BB1CAA0CBB1CC4018A0D9B1DEC01C85F07
S1130960DD4F6A817B818C819D8198DF88836E81D4
S11309707F818885998592DF8983F401E050FE4F59
S11309800190F081E02D80818260808380E8C81628
S113099080E7D806E104F10409F473C054F580E853
S11309A0C81685E2D806E104F10409F45BC08CF4AE
S11309B080E6C81689E0D806E104F10409F448C0C9
S11309C080ECC81682E1D806E104F10409F445C0BC
S11309D07BC080E4C81688E3D806E104F10409F476
S11309E046C0C1148BE4D806E104F10409F444C000
S11309F06BC0C1148CE2D80681E0E806F10409F466
S1130A004FC06CF4C11486E9D806E104F104F1F195
S1130A10C11481EED806E104F104E9F155C0C11412
S1130A2084E8D80683E0E806F10409F443C080E9C9
S1130A30C81680EDD80683E0E806F10409F43FC047
S1130A40C11482ECD80681E0E806F104E9F52DC072
S1130A5040E453E060E070E03AC040EA51E060E016
S1130A6070E035C04FEC50E060E070E030C04AE820
S1130A7050E060E070E02BC047E650E060E070E0DA
S1130A8026C044E450E060E070E021C043E350E05D
S1130A9060E070E01CC042E250E060E070E017C02B
S1130AA049E150E060E070E012C040E150E060E0F5
S1130AB070E00DC048E050E060E070E008C047E03E
S1130AC050E060E070E003C04FEF5FEFBA018FB712
S1130AD0F894E301CC0FDD1FC050DE4FE881F981AB
S1130AE055834483E881F9811283E881F98198E987
S1130AF091838FBF789480E090E002C08FEF9FEFE6
S1130B00DF91CF911F91FF90EF90DF90CF90BF9036
S1130B10AF909F908F907F906F900895CF93DF93C5
S1130B201F92CDB7DEB71982FC01EE0FFF1F880FAD
S1130B30991F880F991F880F991FE80FF91FE85F05
S1130B40FD4FBE016F5F7F4F808137DE882319F030
S1130B50898190E002C08FEF9FEF0F90DF91CF91DA
S1130B600895CF92DF92EF92FF920F931F93CF934A
S1130B70DF9314161506ECF48A016B017C01C0E0C6
S1130B80D0E0C701CBDF8F3F69F08D3031F4CC0D5D
S1130B90DD1D188281E090E00EC0F601EC0FFD1F10
S1130BA080832196BFDAC017D1075CF380E090E020
S1130BB002C080E090E0DF91CF911F910F91FF90F0
S1130BC0EF90DF90CF900895CF93DF93EC01FC0179
S1130BD0EE0FFF1F880F991F880F991F880F991F09
S1130BE0E80FF91FE85FFD4F818178DD882361F00C
S1130BF0CC0FDD1FC050DE4FE881F9818181806216
S1130C00818381E090E002C08FEF9FEFDF91CF916D
S1130C100895EF92FF920F931F93CF93DF931416CF
S1130C2015065CF48B017C01EB01040F151F69911F
S1130C30C701CADFC017D107D1F781E090E0DF9187
S1130C40CF911F910F91FF90EF9008951F920F92F3
S1130C500FB60F9211240BB60F922F933F934F931D
S1130C605F936F937F938F939F93AF93BF93EF9310
S1130C70FF93CF93DF931F92CDB7DEB7BE016F5FB3
S1130C807F4F8091090299DD882321F08981809327
S1130C90C60007C0E0910002F091010281818F7DBE
S1130CA081830F90DF91CF91FF91EF91BF91AF912D
S1130CB09F918F917F916F915F914F913F912F9170
S1130CC00F900BBE0F900FBE0F901F9018951F92A0
S1130CD00F920FB60F9211240BB60F922F933F93DE
S1130CE04F935F936F937F938F939F93AF93BF9330
S1130CF0EF93FF93CF93DF931F92CDB7DEB7BE017F
S1130D006F5F7F4F8091130258DD882321F0898122
S1130D108093CE0007C0E0910202F091030281812A
S1130D208F7D81830F90DF91CF91FF91EF91BF91E0
S1130D30AF919F918F917F916F915F914F913F916F
S1130D402F910F900BBE0F900FBE0F901F90189510
S1130D501F920F920FB60F9211240BB60F922F937E
S1130D603F934F935F936F937F938F939F93AF932F
S1130D70BF93EF93FF93CF93DF931F92CDB7DEB76B
S1130D80BE016F5F7F4F80911D0217DD882321F024
S1130D9089818093D60007C0E0910402F091050296
S1130DA081818F7D81830F90DF91CF91FF91EF91AE
S1130DB0BF91AF919F918F917F916F915F914F916F
S1130DC03F912F910F900BBE0F900FBE0F901F906D
S1130DD018951F920F920FB60F9211240BB60F9213
S1130DE02F933F934F935F936F937F938F939F932F
S1130DF0AF93BF93EF93FF93CF93DF931F92CDB73E
S1130E00DEB7BE016F5F7F4F80912702D6DC882357
S1130E1021F089818093360107C0E0910602F091A8
S1130E20070281818F7D81830F90DF91CF91FF91A4
S1130E30EF91BF91AF919F918F917F916F915F914E
S1130E404F913F912F910F900BBE0F900FBE0F90BB
S1130E501F9018951F920F920FB60F9211240BB684
S1130E600F922F933F934F935F936F937F938F933F
S1130E709F93AF93BF93EF93FF936091C6008091CC
S1130E8008022CDCFF91EF91BF91AF919F918F915C
S1130E907F916F915F914F913F912F910F900BBE76
S1130EA00F900FBE0F901F9018951F920F920FB6C0
S1130EB00F9211240BB60F922F933F934F935F938E
S1130EC06F937F938F939F93AF93BF93EF93FF930E
S1130ED06091CE008091120201DCFF91EF91BF91ED
S1130EE0AF919F918F917F916F915F914F913F91BE
S1130EF02F910F900BBE0F900FBE0F901F9018955F
S1130F001F920F920FB60F9211240BB60F922F93CC
S1130F103F934F935F936F937F938F939F93AF937D
S1130F20BF93EF93FF936091D60080911C02D6DBB0
S1130F30FF91EF91BF91AF919F918F917F916F91AD
S1130F405F914F913F912F910F900BBE0F900FBE69
S1130F500F901F9018951F920F920FB60F921124A5
S1130F600BB60F922F933F934F935F936F937F939F
S1130F708F939F93AF93BF93EF93FF936091360149
S1130F8080912602ABDBFF91EF91BF91AF919F91CE
S1130F908F917F916F915F914F913F912F910F901E
S1130FA00BBE0F900FBE0F901F901895FB01DC0134
S1130FB08D91019080190110D9F3990B0895F8943B
S1050FC0FFCF5D
S1130FC2C000C800D00030010000080B4000480BEC
S1130FD240000000880B2000C80B20000000080C11
S1130FE22000480C20000000880C2000C80C2000BF
S1130FF2534D00456E746572696E6720536572764F
S1131002696365204D6F64650A0D00544D00456E99
S1131012746572696E67204F7065726174696E6778
S1131022204D6F64650A0D004F4D004572726F7258
S11310322072656164696E6720636F6D6D616E64B1
S10710420A0D00008F
S9030000FC
